:100000000C9490000C94AF000C94AF000C94AF00D3
:100010000C94AF000C94AF000C94AF000C94AF00A4
:100020000C94AF000C94AF000C94AF000C94AF0094
:100030000C94AF000C948E070C94AF000C94AF009E
:100040000C94AF000C94AF000C94AF000C94AF0074
:100050000C94AF000C94AF000C94AF000C94AF0064
:100060000C94AF000C946A080C944E080C94AF00EA
:100070000C94AF000C94A5090C94AF000C94AF0045
:100080000C94AF000C94AF000C94AF000C94AF0034
:100090000C94AF000C94AF000C94AF000C94AF0024
:1000A0000C94AF000C94AF000C94F6050C9407066A
:1000B0000C94AF000C94AF000C94AF000C94AF0004
:1000C0000C94AF000C94AF000C94AF000C94AF00F4
:1000D0000C94AF000C94AF000C94AF000C94AF00E4
:1000E0000C94AF000C94AF000C94AF000C94AF00D4
:1000F0000C94EB060C94AF000C94AF000C94B30678
:100100000C94AF000C94AF000C94AF000C94AF00B3
:100110000C94AF000C94AF000C94AF000C94AF00A3
:1001200011241FBECFEFD1E4DEBFCDBF12E0A0E0AF
:10013000B2E0EEE8F6E200E00BBF02C007900D92DD
:10014000AA31B107D9F719E0AAE1B2E001C01D92C6
:10015000AE32B107E1F70E9479120C9445130C946A
:100160000000A4E0B0E0E7EBF0E00C94EC127C01BE
:100170006A01FC018081823008F44AC1FB01908150
:10018000923008F442C1843079F4943009F040C1CF
:10019000F7019181FB018181981709F439C1A0E031
:1001A000EA2EA2E0FA2E34C1943009F42EC1923026
:1001B00091F4823009F02CC188E0F701DA01019056
:1001C0000D928A95E1F7FB018181F70191818923E5
:1001D000FA0181831CC1823009F417C1F7018281C1
:1001E0009381FB01A281B381F701048115812681EE
:1001F0003781FB0184809580A680B780FC01EA1BD3
:10020000FB0BAF01F7FF04C0442755274E1B5F0BC4
:10021000403251050CF074C01E161F06B4F52401BF
:100220003501042E04C076946794579447940A9439
:10023000D2F749825A826B827C82412C512C320146
:10024000439404C0440C551C661C771C4A95D2F795
:1002500041E0441A510861087108482059206A2079
:100260007B20812C912C54018394452846284728D3
:1002700019F4812C912C540149805A806B807C8028
:1002800084289528A628B72846C0EF2B09F443C038
:10029000840F951F28013901042E04C076946794B9
:1002A000579447940A94D2F749825A826B827C828F
:1002B000412C512C3201439404C0440C551C661C43
:1002C000771C4A95D2F741E0441A51086108710839
:1002D000402251226222732201E010E020E030E04F
:1002E00045284628472819F400E010E09801498085
:1002F0005A806B807C8004291529262937290BC058
:10030000A817B90724F4812C912C540104C0CD0105
:1003100000E010E09801F7014181FB015181451790
:1003200009F446C0442349F024013501401A510A1A
:10033000620A730A9301820104C0081919092A0983
:100340003B0937FD05C0F6011182938382830CC0FF
:1003500041E0F60141839383828330952095109587
:1003600001951F4F2F4F3F4F0483158326833783FB
:100370000EC0880F991FAA1FBB1FF60184839583A7
:10038000A683B78382819381019793838283F60149
:1003900084819581A681B781AC01BD01415051098D
:1003A000610971094F3F5F4F6F4F7F4310F30CC0DE
:1003B000F601418393838283080D191D2A1D3B1D7D
:1003C000048315832683378383E0F6018083448189
:1003D00055816681778177FF1AC0DB01CA01817080
:1003E0009927AA27BB277695679557954795842B1C
:1003F000952BA62BB72B84839583A683B783828105
:10040000938101969383828302C07B0101C07601B0
:10041000C7012496E0E10C940813A0E2B0E0E3E108
:10042000F2E00C94FA126D8F7E8F8F8F98A3298F34
:100430003A8F4B8F5C8FBE016F5E7F4FCE014D9622
:100440000E946605BE01675F7F4FCE0149960E94FC
:100450006605AE014F5F5F4FBE01675F7F4FCE0104
:1004600041960E94B1000E949C04A096E2E00C9488
:100470001613A0E2B0E0EFE3F2E00C94FA126D8FF5
:100480007E8F8F8F98A3298F3A8F4B8F5C8FBE0101
:100490006F5E7F4FCE014D960E946605BE01675F7D
:1004A0007F4FCE0149960E9466058A8591E0892793
:1004B0008A87AE014F5F5F4FBE01675F7F4FCE01FE
:1004C00041960E94B1000E949C04A096E2E00C9428
:1004D0001613A0E2B0E0EFE6F2E00C94EC126D8FA0
:1004E0007E8F8F8F98A3298F3A8F4B8F5C8FBE01A1
:1004F0006F5E7F4FCE014D960E946605BE01675F1D
:100500007F4FCE0149960E9466059989923008F482
:1005100012C08985823008F41AC0943021F48230E8
:1005200009F4B4C008C0843021F4923009F4AEC09C
:100530000EC0923051F481E02A899A85291301C0B6
:1005400080E08A8BCE014196A3C0823051F481E0D5
:100550002A899A85291301C080E08A87CE010996ED
:1005600097C08D889E88AF88B88C0D851E852F8595
:100570003889E0E2F0E080E090E0DC01C12CD12C91
:10058000760140E050E0BA0180FE18C0400F511FD4
:10059000621F731F8C0D9D1DAE1DBF1D412C512C64
:1005A00032014394401751076207730718F0412C3A
:1005B000512C3201840D951DA61DB71DCC0CDD1CE0
:1005C000EE1CFF1C37FF02C06894C0F8000F111F1B
:1005D000221F331FB694A794979487943197A1F65E
:1005E0002B893C89EB85FC852E0F3F1F2E5F3F4FEB
:1005F0003C832B8321E0EA893A85E31301C020E0A4
:100600002A83EB81FC810CC080FF05C0769567953D
:10061000579547957068B695A795979587953196A4
:10062000B7FDF2CF9F010CC0880F991FAA1FBB1FF7
:1006300077FD8160440F551F661F771F21503109D8
:100640000097A105E0E4BE0778F32B833C838C017F
:100650009D010F771127222733270034110521052B
:10066000310559F487FD09C0452B462B472B29F04E
:10067000805C9F4FAF4FBF4F80788D839E83AF8349
:10068000B88783E08983CE01019602C080E092E0C2
:100690000E949C04A096E0E10C940813A8E1B0E04D
:1006A000E4E5F3E00C94F4126D8B7E8B8F8B988FC6
:1006B000298B3A8B4B8B5C8BBE01675F7F4FCE01E2
:1006C00045960E946605BE016F5F7F4FCE01419641
:1006D0000E9466059985923008F475C08981823040
:1006E00008F474C02A853A8123272A87943011F0B0
:1006F000923019F4981367C06CC0843039F41D86A9
:100700001E861F86188A1C861B8604C0823029F428
:1007100084E08987CE0109965EC08B859C852B81FC
:100720003C81821B930B9C878B874D855E856F85F3
:100730007889CD80DE80EF80F8844C155D056E05EC
:100740007F0538F4440F551F661F771F01979C875C
:100750008B87EFE1F0E000E010E020E030E480E0A3
:1007600090E0DC014C155D056E057F0540F0802BA7
:10077000912BA22BB32B4C195D096E097F0936957D
:10078000279517950795440F551F661F771F3197BB
:1007900049F78C019D010F77112722273327003459
:1007A00011052105310559F487FD09C0452B462B5C
:1007B000472B29F0805C9F4FAF4FBF4F80788D87CC
:1007C0009E87AF87B88BCE01099605C0CE010196F2
:1007D00002C080E092E00E949C046896E8E00C94DD
:1007E0001013A8E0B0E0E7EFF3E00C94F81223E078
:1007F00029838B019C01002737FD039511272227B0
:100800003327402F0A83611571058105910519F47D
:1008100082E0898335C02EE130E03C832B83442382
:1008200071F061157105810520E8920771F10027CB
:1008300011279801061B170B280B390B02C08B01DF
:100840009C01C901B8010E942113019718161906CD
:100850002CF00D831E832F83388712C0082E04C00E
:10086000000F111F221F331F0A94D2F70D831E831E
:100870002F8338872EE130E0281B390B3C832B83F4
:10088000CE0101960E949C0404C060E070E080E00C
:100890009FEC2896E4E00C941413ACE0B0E0E3E5A0
:1008A000F4E00C94F81269877A878B879C87BE01E5
:1008B0006F5F7F4FCE0109960E9466058981823065
:1008C00091F1823080F1843041F48A81882331F1C2
:1008D00000E010E020E030E829C02B813C8137FDAA
:1008E00022C02F3131058CF78EE190E0821B930BF3
:1008F0000D811E812F81388504C036952795179567
:1009000007958A95D2F78A81882381F030952095C2
:10091000109501951F4F2F4F3F4F08C00FEF1FEF4E
:100920002FEF3FE703C000E010E09801B801C901D4
:100930002C96E4E00C9414130F931F93CF93DF9342
:10094000DC0114964D915D916D917C9117971196F4
:10095000EC9111978C91823020F460618FEF90E0E0
:10096000A6C0843009F49EC0823009F495C04115B8
:1009700051056105710509F492C012962D913C91C3
:10098000139722388FEF38070CF058C0C2E8DFEF1A
:10099000C21BD30BCA31D1056CF58A019B010C2E09
:1009A00004C036952795179507950A94D2F781E0EC
:1009B00090E0A0E0B0E00C2E04C0880F991FAA1FA1
:1009C000BB1F0A94D2F70197A109B109842395238B
:1009D000A623B72341E050E060E070E0892B8A2B2A
:1009E0008B2B19F440E050E0BA01402B512B622BC5
:1009F000732B03C040E050E0BA01DB01CA018F77DE
:100A00009927AA27BB2780349105A105B10539F4A0
:100A100047FF09C0405C5F4F6F4F7F4F04C0415C90
:100A20005F4F6F4F7F4F81E090E0411551056105A9
:100A300020E4720748F580E090E026C020383105B8
:100A40008CF5DB01CA018F779927AA27BB27803451
:100A50009105A105B10539F447FF09C0405C5F4F1E
:100A60006F4F7F4F04C0415C5F4F6F4F7F4F77FDEB
:100A700004C0C90181589F4F07C076956795579567
:100A80004795C90180589F4F97E076956795579590
:100A900047959A95D1F70BC080E090E005C080E0C3
:100AA00090E005C08FEF90E040E050E0BA01982F51
:100AB0009695E0FB97F9362F80FB37F9642F752F59
:100AC000832FDF91CF911F910F910895CF92DF92E5
:100AD000EF92DC01FB01CC901196DC9011971296FD
:100AE0008C9112973FE7E32EE8226E2DA60170E06D
:100AF000982F991F9927991F13962C91822F880F51
:100B0000892B90E027FB222720F92183009729F5E4
:100B1000411551056105710511F482E027C082E895
:100B20009FEF9383828327E0440F551F661F771F33
:100B30002A95D1F783E0808309C0440F551F661FB3
:100B4000771F828193810197938382834115510599
:100B5000610580E4780788F320C08F3F910579F420
:100B6000411551056105710519F484E0808319C0B0
:100B7000E4FE03C081E0808310C010820EC08F5756
:100B800091099383828383E0808387E0440F551F1C
:100B9000661F771F8A95D1F77064448355836683F7
:100BA0007783EF90DF90CF90089514BE88E10FB661
:100BB000F89480936000109260000FBE78940C94BB
:100BC000E1051092210980E29EE49093A9008093B0
:100BD000A800E1EAF0E088E0808380818260808381
:100BE000E2E7F0E080818260808308951F920F9297
:100BF0000FB60F9211248F93809121098F5F8093FC
:100C000021098F910F900FBE0F901F9018951F9282
:100C10000F920FB60F9211248F9381E080931A02E6
:100C20008F910F900FBE0F901F90189593E09093A7
:100C3000420180934201909141019F718913FBCF42
:100C4000089580912502882311F086E101C088E093
:100C50000C941606E9E3F1E080818160808388E0EE
:100C60000E941606EEE6F1E080818062808380813A
:100C70008F7E80838FEF80934F01EEE4F1E08081DF
:100C800088608083808180648083ECE4F1E08081EF
:100C90008068808381E180936D0110921F02109221
:100CA000250281E080931E020895EFE1F2E0908139
:100CB00098609083809325020895EFE1F2E090819F
:100CC00091609083809320020895EFE1F2E020810B
:100CD0002260208390932202809321020895EFE105
:100CE000F2E02081246020839093240280932302E9
:100CF000089580911E02813049F481E090E02091B6
:100D00001F02211105C080E090E002C081E090E068
:100D1000817008951F93CF93DF9300D0CDB7DEB7D6
:100D2000182F89E169839A830E9416066981862FAC
:100D30008E5F80938001E12F9A81F92FA1E8B1E0C5
:100D400002C081918D938E2F811B8617D0F382E094
:100D50008093420183E080931E020F900F90DF91F9
:100D6000CF911F9108951F920F920FB60F921124E9
:100D70000BB60F922F933F934F935F936F937F9395
:100D80008F939F93AF93BF93EF93FF938091410114
:100D90008F71893169F489E00E94160684E080939E
:100DA0001E028091420182958695877080931D0274
:100DB000FF91EF91BF91AF919F918F917F916F9133
:100DC0005F914F913F912F910F900BBE0F900FBEEF
:100DD0000F901F9018951F920F920FB60F9211242B
:100DE0008F9389E0809342018091470180931C0298
:100DF00080917B0180931B0285E080931E028F917E
:100E00000F900FBE0F901F9018951F93CF93DF93F5
:100E100000D000D01F92CDB7DEB780911E02843083
:100E2000B1F1853009F447C0813009F06EC01091EE
:100E30001F02112309F469C088E00E94160610FF02
:100E400009C0909120029F7180914801807E892B7A
:100E50008093480180911F0281FF08C08091210288
:100E600080936201809122028093630180911F022E
:100E700082FF08C080912302809360018091240248
:100E8000809361010E94210610921F023EC0809152
:100E90001D020E94940F809141018F718930D9F712
:100EA0002FC0FC01E058FE4F2081FC01EA5DFD4FA0
:100EB00020834F5F01C040E020911B02842F90E00F
:100EC00030E0281739076CF786E292E09A8389832D
:100ED00080911B0282508B83E0911B02F0E0EA5D5F
:100EE000FD4F80818C8380911C028A558D83CE01B9
:100EF00001960E94A20C809141018F718930D9F72F
:100F000081E080931E020E9421060F900F900F90A7
:100F10000F900F90DF91CF911F9108951F920F9224
:100F20000FB60F9211248F9381E08093A6028F91C8
:100F30000F900FBE0F901F9018959B01AC0184E09D
:100F4000220F331F441F551F8A95D1F760E078E4C4
:100F500088EE91E00E94C8122150310941095109DF
:100F6000BB27A52F942F832F8093C5002093C40007
:100F700082E08093C00088E98093C10086E080937E
:100F8000C2008DEB92E09093BC028093BB0288EC90
:100F900090E09093B8028093B7021092BA02109238
:100FA000B9021092B4021092B3021092B6021092DB
:100FB000B50226E833E03093B2022093B102909359
:100FC000AE028093AD021092B0021092AF02109266
:100FD000AA021092A9021092AC021092AB0281E018
:100FE0008093A8021092A70208952091B90230912F
:100FF000BA024091B7025091B80224173507F9F0B0
:101000006091B5027091B602E091BB02F091BC0212
:10101000E60FF71F8083CB0101968417950729F00F
:101020009093B6028093B50204C01092B60210925B
:10103000B5022F5F3F4F3093BA022093B902089553
:101040009FB7F894E091B102F091B2022091A90209
:101050003091AA02E20FF31F80812F5F3F4F309340
:10106000AA022093A9024091A9025091AA022091BC
:10107000AD023091AE024217530721F41092AA023A
:101080001092A9022091AF023091B0022150310993
:101090003093B0022093AF029FBF08951F920F922A
:1010A0000FB60F9211240BB60F928F93EF93FF930D
:1010B00081E08093A802E1ECF0E080818F7D808365
:1010C000FF91EF918F910F900BBE0F900FBE0F907D
:1010D0001F9018951F920F920FB60F9211240BB606
:1010E0000F922F933F934F938F939F93EF93FF9381
:1010F0008091C0004091C6008C71B1F52091AF0283
:101100003091B0028091AD029091AE02281739075C
:1011100059F1E091B102F091B2028091AB0290914D
:10112000AC02E80FF91F408301969093AC028093C4
:10113000AB022091AB023091AC028091AD02909154
:10114000AE022817390721F41092AC021092AB02BC
:101150008091AF029091B00201969093B00280937B
:10116000AF0281E08093A702FF91EF919F918F9151
:101170004F913F912F910F900BBE0F900FBE0F908C
:101180001F9018958091B9029091BA02009789F149
:101190002091A802222369F12091B3023091B40278
:1011A000E091BB02F091BC02E20FF31F60812F5F60
:1011B0003F4F3093B4022093B3024091B702509155
:1011C000B8022417350721F41092B4021092B3022A
:1011D00001979093BA028093B9029FB7F8946093F5
:1011E000C6008091C10080628093C1001092A80265
:1011F0009FBF3FB7F8942091A7021092A702809159
:10120000AF029091B0023FBF21110C944412089597
:1012100083B7817F826083BF10924F0483B7816060
:1012200083BF889583B78E7F83BF80914F048823C7
:10123000A9F32091780030917900C9010895CF92E7
:10124000DF92EF92FF92CF9386E880937A0088E056
:1012500080937B0089EC80937C008FE193E0019781
:10126000F1F700C0000080917A00806180937A00DD
:1012700080917A00886080937A000E9408098FE844
:1012800091E00197F1F700C00000C5E0C12CD12C1E
:1012900076010E94080920915004821B910927FDC4
:1012A0009395AA2797FDA095BA2FC80ED91EEA1EBE
:1012B000FB1EC15071F780917A00877780937A0086
:1012C000C701B6010E94F10327ED33EA40E95FE36D
:1012D0000E94690220E030E040EA50E40E944E03A0
:1012E00026E636E648E853E40E943902CF91FF90A3
:1012F000EF90DF90CF900895CF93DF93CAE7D0E0CF
:1013000086E8888310927B0088EC80937C008FE1D4
:1013100093E00197F1F700C0000088818061888325
:101320008881886088830E9408098FE891E001978E
:10133000F1F700C000000E94080998819777988310
:1013400080935004DF91CF9108951F920F920FB6B2
:101350000F9211248F9381E080934F048F910F900F
:101360000FBE0F901F901895109226091092270912
:10137000109223091092220910922909109228092B
:1013800010922B0910922A0910922D0910922C0903
:101390000E94D00E0E947E0C0E94B50A0E940B0A89
:1013A0000C94330B90932309809322090C946F06BD
:1013B00090932509809324090C946506E82FF0E0AA
:1013C000EE0FFF1FE85DF64F7183608308950E9462
:1013D000D50C0E94B00F0C94250AE0915104F091B5
:1013E000520415C0228133812817390769F4DC01C2
:1013F000A158BF4F2C912787DC01AE57BF4F2C91CE
:10140000208B22E0248305C00190F081E02D3097ED
:1014100049F70C94DF0A1092520410925104089577
:10142000FC011482178613821282809151049091DC
:101430005204009719F41182108202C091838083B4
:10144000F0935204E093510408950F931F93CF93A8
:10145000DF93E0915104F0915204EF017EC08C8142
:10146000882321F0823009F075C058C08C850E9415
:10147000BC0A8C01009721F482E08C838F8770C0B6
:101480009B838A8381E08C83F801ED57FF4F8DEEBB
:1014900099E091838083F801EE57FF4F898582FBA5
:1014A000882780F980839985F801838590FB80F9EE
:1014B0008387998593FB992790F990FB82F9877030
:1014C0008387809126098F5F809326098487809186
:1014D000220990912309968785878D819E81908B23
:1014E000878798859F708189807F892B818B9F81D9
:1014F0009295907F8F70892B818B98012E5E3F4F44
:101500004C856A857B8550E0C9010E943C13C80167
:10151000DF91CF911F910F910C94EB0EEC17FD070B
:1015200041F48881998190935204809351040AC0B8
:10153000FC01808191818C179D07D1F78881998169
:1015400091838083ED85FE85CE01DF91CF911F9140
:101550000F9109940990D881C02D209709F07FCF71
:10156000DF91CF911F910F91089510925304109223
:10157000D80410925D05089590915304992359F071
:101580009091D804992351F090915D05911113C069
:1015900022E030E005C020E030E002C021E030E091
:1015A00095E8929FF001939FF00D1124ED5AFB4FA7
:1015B000805F818302C0E0E0F0E0CF010895FC018C
:1015C0001082089595E8899F900111242D5A3B4F70
:1015D000C9010895FC01DC01A158BF4F1C92DC0138
:1015E000A058BF4F1D921C92DC01AE57BF4F1C92FA
:1015F000DC01AD57BF4F1D921C921386A6E2B9E0E5
:101600008C918F5F8C93848780912209909123091C
:1016100096878587108A1786118A0895E2EEF5E08D
:1016200040E050E0208131812817390749F486E0F5
:10163000849F9001859F300D11242E513A4F0DC08B
:101640004F5F5F4F36964436510561F7019619F4A6
:1016500024E338E002C020E030E0C90108950C9492
:10166000DF0A0C94DF0AE2EEF5E08FEF9FEF918343
:101670008083369628E0EA33F207C9F708950E947E
:101680000E0B009729F02FEF3FEFFC0131832083F1
:101690000895EF92FF920F931F93CF93DF93EC0186
:1016A00009851A8517FF05C08D859E8508171907BE
:1016B00041F58D819E81019621F1ED84FE84C70163
:1016C0000E940E0BFC01009769F0828193818017C4
:1016D000910799F0DE01A158BF4F9C918581891730
:1016E00060F407C08FEF9FEF0E940E0BFC01F182A8
:1016F000E0821383028383E08483C158DF4F8881B3
:101700008583DF91CF911F910F91FF90EF90089506
:101710000F931F93CF93DF9300D000D000D0CDB7AD
:10172000DEB78C01FC01878590890E940E0B9C011D
:10173000009799F1F801E158FF4F8081811104C0B1
:1017400083E0F90184830BC0F90184818150848393
:10175000811105C08FEF9FEF918380831EC0C90167
:10176000825E95400697CCF0C901069746E0FC01E1
:10177000DE01119601900D924A95E1F746E0F901DC
:10178000DC0101900D924A95E1F786E0FE01319669
:10179000D90101900D928A95E1F726960FB6F8943B
:1017A000DEBF0FBECDBFDF91CF911F910F91089586
:1017B0008F3F2FEF9207D1F0E2EEF5E020E030E02E
:1017C000408151814817590759F486E0829FF00102
:1017D000839FF00D1124EE51FA4F2281338108C00E
:1017E0002F5F3F4F36962436310551F72FEF3FEFED
:1017F000C9010895CF92DF92EF92FF920F931F934A
:10180000CF93DF938C01FC01E784F088C7010E942D
:10181000D80B0196B9F0F801ED57FF4F81E39BE03B
:1018200091838083F801EE57FF4F82E08083C801E7
:10183000DF91CF911F910F91FF90EF90DF90CF90AC
:101840000C94EB0EF801C584D68485E00E94BC0A96
:10185000EC010097A1F00E94EA0AFE01ED57FF4F4C
:101860008FE29BE091838083D88ACF8681E08A8B48
:10187000DC8ACB8AFE8AED8ACE010E94EB0EC8017B
:10188000DF91CF911F910F91FF90EF90DF90CF905C
:101890000C94DF0ADC011596ED91FC91169783817B
:1018A00094810C943F0B0C94DF0AEEE3F8E040E0E7
:1018B000208131812115310529F0215031093183F1
:1018C000208341E0359628E0E037F20789F741119F
:1018D0000C9497100895DC011596ED91FC911697E4
:1018E0002081211103C00E94700F04C0213021F417
:1018F0000E944A0C81E0089580E00895EEE3F8E04C
:1019000011821082359688E0E037F807C9F7109207
:101910006D0884E190E0A0E0B0E0809374089093BB
:101920007508A0937608B09377081092780885E53B
:101930009CE090937A08809379086BE67CE080E0E5
:101940000C94DE09CF93DF93EC01E881F98181816A
:10195000883841F58081813611F0813419F58A810A
:10196000803100F180510E94BC0A0097D9F020E23A
:10197000FC0120832B81E158FF4F20832C81FC0147
:10198000E058FF4F20839C012E5F3F4F4A816881C2
:10199000798150E0C9010E943C1380916D088F5FEE
:1019A00080936D08DF91CF9108957F928F929F92DF
:1019B000AF92BF92CF92DF92EF92FF920F931F935D
:1019C000CF93DF93CDB7DEB72A970FB6F894DEBF7B
:1019D0000FBECDBF80916D08882309F495C1B12C4D
:1019E00094E2A92E23E5C22E2CE0D22E32E2832EE1
:1019F00043E2742E55E0952E8B2D0E94E20A8C0155
:101A0000DC018C91823209F4BBC020F4803209F0F1
:101A10006FC107C0833209F45FC1843209F068C125
:101A20005FC1F801A08287859089019629F4D801C9
:101A30001B968C9180FD5CC1209122093091230975
:101A4000F801858596852817390709F451C18385E2
:101A500081FD4EC1C8010E94490BABE3B8E020E014
:101A600030E06FEF13968D919C911497892B81F143
:101A7000F801458556858D919C9111974817590716
:101A800041F58485929EF001939EF00D1124E55C52
:101A9000F74F9281282F291B121634F4828387E98D
:101AA00090E09483838329C12091220930912309F6
:101AB000D80117968D919C9118972817390709F02E
:101AC00017C11F968D919C9150970E943F0B10C19A
:101AD000622F2F5F3F4F15962A30310519F66F3F61
:101AE00009F406C1292D6203F0011124E55CF74FCA
:101AF000D8011D968D919C911E97918380831C9691
:101B00008C91828387E990E0948383838EE698E0CA
:101B10000E949710F2C02091220930912309F80108
:101B2000878590892817390761F08581968101960C
:101B300041F0D8011B968C9182FD03C0C8010E9420
:101B4000260F8091220990912309F8012785308979
:101B50008217930719F02F3F3F4F19F4D8018C9249
:101B6000C7C0F801278130858217930709F0C0C0EC
:101B700085819681019609F4BBC0D8017C92B8C0DA
:101B800010923A08F801218922952F70E22FF0E097
:101B9000E430F1050CF05EC0EE0FFF1FE85DF64F7C
:101BA0000190F081E02D309709F454C0D8011D96C2
:101BB0008D919C911E979A83898351963C91519760
:101BC0003F703B832C8398012E5E3F4F3F832E83D3
:101BD00011962C91119720512887A158BF4F2C9115
:101BE0002987D801A058BF4F2C912A87D8011B966E
:101BF0003C91432F437032FF02C020E201C020E03D
:101C0000422BD8011F962D913C9150972F3F3F4F6B
:101C100011F424E001C020E0422BD80119962D9147
:101C20003C911A978217930711F498E001C090E055
:101C3000242F292BD80115968D919C9116970196EA
:101C400011F480E101C080E0822B8D83CE010196EA
:101C5000099501C080E0F801278130852F3F3F4F73
:101C600071F421E030E06091220970912309D801DC
:101C70001F964D915C9150976417750711F020E005
:101C800030E02170F801938590FF02C0811102C0FD
:101C90002223F9F083E00E94BC0A7C010097C9F07E
:101CA0000E94EA0AF701ED57FF4FD182C082D801A6
:101CB0001D968D919C911E97F701908B8787128AB4
:101CC00080913A08848B1C968C91838BC7010E946B
:101CD000EB0ED801AC920CC0C8010E94FA0B03C0F5
:101CE000C8010E94DF0A80916D08815080936D08C1
:101CF000B394B3E0BB1280CE07C0F8018781908512
:101D0000019609F01ECF07CF2A960FB6F894DEBFD2
:101D10000FBECDBFDF91CF911F910F91FF90EF903C
:101D2000DF90CF90BF90AF909F908F907F9008955D
:101D30000C94DF0AFF920F931F93CF93DF93EC0174
:101D400080917D08882331F110E005E180E1F82ED3
:101D5000812F0E94E20AFC018081843181F4DF013D
:101D6000A058BF4F2D913C911197215031092D93CF
:101D70003C93232B21F40083E158FF4FF0821F5F37
:101D8000133031F7CE01DF91CF911F910F91FF906A
:101D90000C949710DF91CF911F910F91FF900895B0
:101DA00010927C0810927B0810927D0882E390E0EC
:101DB000A0E0B0E08093840890938508A093860803
:101DC000B0938708109288088AE99EE090938A0869
:101DD000809389080895CF93DF93EC01FC01EE57BF
:101DE000FF4F808191E19883FE01E158FF4F1082FF
:101DF00080FF03C08FEF9FEF04C080912409909172
:101E000025099E838D838F8598890E94D80B98879A
:101E10008F8320912209309123093A8729872091C5
:101E200027092F5F209327092C83019619F481E459
:101E300098E802C081E698E89B838A8380917D08B8
:101E40008F5F80937D08DF91CF9108950F931F934B
:101E5000CF93DF938C01FC01818180510E94BC0AE9
:101E6000EC010097C1F1FC01ED57FF4F88E99EE0BE
:101E7000918380839E012E5F3F4FF80141810E5F69
:101E80001F4F50E0B801C9010E943C1381E18883D3
:101E9000FE01E158FF4F108281E498E89B838A831A
:101EA0008FEF9FEF98878F83809124099091250968
:101EB0009E838D8380912209909123099A87898737
:101EC000809127098F5F809327098C8380917D08FB
:101ED0008F5F80937D08DF91CF911F910F910895BF
:101EE0001F93CF93DF93FC01C581D68180917D083C
:101EF0008823B1F010E0812F0E94E20AFC0180816A
:101F0000843159F494858981981307C085E18083D1
:101F10008A81EE57FF4F808303C01F5F133059F74C
:101F2000DF91CF911F910895E0917B08F0917C089B
:101F3000833030F0833031F0853031F481E205C0F8
:101F400080E003C080E201C081E0DF01A158BF4F03
:101F50008C9383E1808310927C0810927B08089513
:101F6000CF92DF92EF92FF920F931F93CF93DF9365
:101F700080917D08882309F455C0F12C95E1E92E64
:101F800024E1D22E05E110E032E1C32E8F2D0E9414
:101F9000E20AEC018881833199F0853179F1813150
:101FA000E9F50E947906811139C0D0937C08C0936D
:101FB0007B08C8826981CE0102960E948A062EC0E3
:101FC000FE01E158FF4F8081811116C04D855E856D
:101FD00020912209309123094217530769F48B8518
:101FE00080FF0AC0D882C058DF4F198308838EE76C
:101FF00098E00E94971012C0E88210C0CE010E94A3
:10200000880BFE01ED57FF4F0190F081E02DCE01CE
:10201000099580917D08815080937D08F39483E039
:10202000F812B4CFDF91CF911F910F91FF90EF90F5
:10203000DF90CF9008950E94D5050E9481100E94E4
:102040002A060C94B4090E9405070E94E7090C9423
:10205000A6100F931F93CF93DF93FC0180918B0801
:1020600090918C08B681A781308521850097D1F1A8
:102070004B2F5A2F632F722FDC01C0E0D0E001C03C
:10208000D90112960D911D912D913C9115974017F4
:1020900051076207730758F4041B150B260B370B07
:1020A00012960D931D932D933C9315970BC0401BD7
:1020B000510B620B730B2D913C911197ED01211582
:1020C0003105F1F64283538364837583209739F099
:1020D0008881998191838083F983E8830DC09183FE
:1020E000808306C011821082B283A3833483258348
:1020F000F0938C08E0938B08DF91CF911F910F91A3
:10210000089510928C0810928B080895E0918B0826
:10211000F0918C0806C0E817F90739F00190F081BA
:10212000E02D3097C1F780E0089581E00895CF93C6
:10213000DF93EC010E948610811105C0CE01DF9172
:10214000CF910C942910DF91CF910895CF92DF9217
:10215000EF92FF92CF93DF93809121098823D1F1F1
:102160008FB7F89420912109109221098FBF30E098
:10217000AAE0B0E00E94BC126B017C0114C0C41A3A
:10218000D50AE60AF70A8881998190938C08809392
:102190008B088A85813019F4CE010E942910EB85C5
:1021A000FC85CE010995C0918B08D0918C082097B1
:1021B00089F04A815B816C817D81C416D506E60673
:1021C000F706E8F64C195D096E097F094A835B83BF
:1021D0006C837D83DF91CF91FF90EF90DF90CF9064
:1021E0000895CF93DF93CDB7DEB761970FB6F8941C
:1021F000DEBF0FBECDBF81E1E8E0F2E0DE01119667
:1022000001900D928A95E1F70E941F0960931C09C5
:1022100070931D0980931E0990931F0984E50E9405
:10222000F50785E60E94F5078DE60E94F50780E731
:102230000E94F5078AE30E94F50780E20E94F507F5
:1022400060911C0970911D0980911E0990911F09D0
:102250000E944D04FB0184E0F595E7958A95E1F72E
:10226000EF70FF2781E090E08C0F9D1FE80FF91FB2
:1022700080810E94F50760911C0970911D09809171
:102280001E0990911F090E944D04FB01EF70FF276A
:1022900081E090E08C0F9D1FE80FF91F80810E9464
:1022A000F5078DE00E94F5078AE061960FB6F89475
:1022B000DEBF0FBECDBFDF91CF910C94F507FF922B
:1022C0000F931F93CF93DF93CDB7DEB761970FB610
:1022D000F894DEBF0FBECDBF8C0181E1E8E0F2E0F3
:1022E000DE01119601900D928A95E1F781E08093CD
:1022F00020098CE60E94F50781E70E94F50789E630
:102300000E94F5078AE30E94F50780E20E94F50724
:10231000D80118968C9182958F70E1E0F0E0EC0F77
:10232000FD1FE80FF11D80810E94F507F8018085EF
:102330008F70E1E0F0E0EC0FFD1FE80FF11D8081F0
:102340000E94F50780E20E94F50780E20E94F507EF
:1023500082E70E94F50783E70E94F50783E70E9462
:10236000F50789E60E94F5078AE30E94F50780E2F7
:102370000E94F507D80119968C9182958F70E1E043
:10238000F0E0EC0FFD1FE80FF11D80810E94F507C2
:10239000F80181858F70E1E0F0E0EC0FFD1FE80FA0
:1023A000F11D80810E94F50780E20E94F50780E21E
:1023B0000E94F50784E60E94F50781E60E94F50772
:1023C00084E70E94F50781E60E94F5078AE30E94F0
:1023D000F50780E20E94F507F12C0BC0D801159695
:1023E000ED91FC911697EF0DF11D80810E94F5078C
:1023F000F394F8018781F81688F38DE00E94F507C1
:102400008AE00E94F5078DE00E94F5078AE00E94AD
:10241000F50781E061960FB6F894DEBF0FBECDBF21
:10242000DF91CF911F910F91FF900895CF9381E09D
:1024300090E09093020980930109C1E0C0930309E1
:10244000C093040982E0809305098DE099E09093A0
:10245000070980930609C093080980E492E19093EC
:102460000A09809309098CEF98E00E94100A809174
:102470000D098F5F80930D09C093FB08CF910895DC
:102480001092FB080C941612EF92FF920F931F9379
:10249000CF93DF931F92CDB7DEB78C01E12CF12CE7
:1024A0001DC00E94200890918D089D3641F49091A6
:1024B000FB08911104C089830E94161289819091B2
:1024C0008D089D3640F4E92FF0E0E257F74F808306
:1024D0009F5F90938D088FEFE81AF80AE016F106D7
:1024E00001F70F90DF91CF911F910F91FF90EF9027
:1024F00008950E941B1060E072EC81E090E00E9461
:102500009D0798EEC92E93E0D92EE12CF12CC1EF56
:10251000D0E10E9423100E94C20880910E0981110F
:10252000F8CF81E090E00E94D20987E695E40E940E
:10253000D8098AE10E945D0681E00E9455066FE598
:1025400071E181E00E94DE090E947C09C0921509B8
:10255000D0921609E0921709F092180911E0109331
:102560001909D0931B09C0931A098FE099E00E94C2
:10257000971010930E09CDCFA29FB001B39FC00159
:10258000A39F01D0B29F700D811D1124911D08954C
:10259000A1E21A2EAA1BBB1BFD010DC0AA1FBB1F67
:1025A000EE1FFF1FA217B307E407F50720F0A21BD9
:1025B000B30BE40BF50B661F771F881F991F1A9446
:1025C00069F760957095809590959B01AC01BD0170
:1025D000CF0108952F923F924F925F926F927F9218
:1025E0008F929F92AF92BF92CF92DF92EF92FF9223
:1025F0000F931F93CF93DF93CDB7DEB7CA1BDB0BCF
:102600000FB6F894DEBF0FBECDBF09942A88398873
:1026100048885F846E847D848C849B84AA84B9847A
:10262000C884DF80EE80FD800C811B81AA81B98186
:10263000CE0FD11D0FB6F894DEBF0FBECDBFED019A
:1026400008950E942A1384FF0895CB010E942A1343
:10265000805F0895AA27992329F4A85F982B11F485
:1026600080E10895903118F4AD5F9295A395990F8C
:10267000E8F78A2F99270895FB01DC0102C0019039
:0E2680000D9241505040D8F70895F894FFCFC6
:10268E0000000000000000003031323334353637A0
:0A269E00383961626364656600006C
:00000001FF
