:100000000C9490000C94AF000C94AF000C94AF00D3
:100010000C94AF000C94AF000C94AF000C94AF00A4
:100020000C94AF000C94AF000C94AF000C94AF0094
:100030000C94AF000C94A4020C94AF000C94AF008D
:100040000C94AF000C94AF000C94AF000C94AF0074
:100050000C94AF000C94AF000C94AF000C94AF0064
:100060000C94AF000C9482030C9466030C94AF00C4
:100070000C94AF000C94AF000C94AF000C94AF0044
:100080000C94AF000C94AF000C94AF000C94AF0034
:100090000C94AF000C94AF000C94AF000C94AF0024
:1000A0000C94AF000C94AF000C94D2000C94E300BD
:1000B0000C94AF000C94AF000C94AF000C94AF0004
:1000C0000C94AF000C94AF000C94AF000C94AF00F4
:1000D0000C94AF000C94AF000C94AF000C94AF00E4
:1000E0000C94AF000C94AF000C94AF000C94AF00D4
:1000F0000C94C4010C94B1010C94AF000C947901E0
:100100000C94AF000C94AF000C94AF000C94AF00B3
:100110000C94AF000C94AF000C94AF000C94AF00A3
:1001200011241FBECFEFD1E4DEBFCDBF12E0A0E0AF
:10013000B2E0E6E4F4E100E00BBF02C007900D92EC
:10014000A231B107D9F713E0A2E1B2E001C01D92DC
:10015000A13FB107E1F70E9455090C94210A0C94C4
:10016000000014BE88E10FB6F894809360001092EE
:1001700060000FBE78940C94BD001092E80380E2FA
:100180009EE49093A9008093A800E1EAF0E088E063
:100190008083808182608083E2E7F0E080818260FA
:1001A000808308951F920F920FB60F9211248F93A0
:1001B0008091E8038F5F8093E8038F910F900FBECB
:1001C0000F901F9018951F920F920FB60F92112447
:1001D0008F9381E0809312028F910F900FBE0F904A
:1001E0001F90189593E09093420180934201909163
:1001F00041019F718913FBCF089580911D028823CF
:1002000011F086E101C088E00C94F200E9E3F1E02E
:1002100080818160808388E00E94F200EEE6F1E058
:1002200080818062808380818F7E80838FEF809346
:100230004F01EEE4F1E080818860808380818064FA
:100240008083ECE4F1E080818068808381E18093A9
:100250006D011092170210921D0281E08093160228
:100260000895E7E1F2E09081916090838093180215
:10027000089580911602813049F481E090E0209148
:100280001702211105C080E090E002C081E090E0FB
:10029000817008951F93CF93DF9300D0CDB7DEB761
:1002A000182F89E169839A830E94F2006981862F61
:1002B0008E5F80938001E12F9A81F92FA1E8B1E050
:1002C00002C081918D938E2F811B8617D0F382E01F
:1002D0008093420183E0809316020F900F90DF918C
:1002E000CF911F910895E7E1F2E0808180648083DF
:1002F00008951F920F920FB60F9211240BB60F9212
:100300002F933F934F935F936F937F938F939F931D
:10031000AF93BF93EF93FF93809141018F71893128
:1003200069F489E00E94F20084E0809316028091D3
:10033000420182958695877080931502FF91EF9117
:10034000BF91AF919F918F917F916F915F914F91ED
:100350003F912F910F900BBE0F900FBE0F901F90EB
:1003600018951F920F920FB60F9211248F938091C0
:1003700047018093140287E0809316028F910F90BB
:100380000FBE0F901F9018951F920F920FB60F92ED
:1003900011248F9389E080934201809147018093DB
:1003A000140280917B018093130285E080931602F2
:1003B0008F910F900FBE0F901F9018951F93CF93A2
:1003C000DF9300D000D01F92CDB7DEB78091160228
:1003D000843009F45AC020F4813009F0ACC007C061
:1003E000853009F466C0873009F0A5C088C0109137
:1003F0001702112309F49FC088E00E94F20010FF49
:1004000009C0909118029F7180914801807E892BCC
:10041000809348018091170281FF08C080911902E2
:100420008093620180911A02809363018091170288
:1004300082FF08C080911B028093600180911C02A2
:10044000809361018091170286FF17C080914E0151
:10045000877F80934E0180914E018F7B80934E0168
:1004600080914E01806180934E0186E00E94F200EF
:100470001092470186E0809316028091170286FF52
:100480000E94FD001092170256C0809115020E9432
:10049000E907809141018F718930D9F747C0FC018C
:1004A000E058FE4F2081FC01E25EFD4F20834F5F4C
:1004B00001C040E020911302842F90E030E0281723
:1004C00039076CF78EE192E09A8389838091130259
:1004D00082508B83E0911302F0E0E25EFD4F808159
:1004E0008C83809114028A558D83CE0101960E94DF
:1004F0007505809141018F718930D9F717C08091BE
:1005000014028A550E944B098FEF80934F0180910E
:100510004E01886080934E0180914E0180648093EB
:100520004E0180914E018F7E80934E0181E0809339
:1005300016020E94FD000F900F900F900F900F90E9
:10054000DF91CF911F9108951F920F920FB60F92D6
:1005500011248F9381E080939E028F910F900FBEA4
:100560000F901F9018959B01AC0184E0220F331F60
:10057000441F551F8A95D1F760E078E488EE91E03A
:100580000E94F6092150310941095109BB27A52FC5
:10059000942F832F8093C5002093C40082E0809322
:1005A000C00088E98093C10086E08093C20085EB9B
:1005B00092E09093B4028093B30284E690E090932B
:1005C000B0028093AF021092B2021092B102109268
:1005D000AC021092AB021092AE021092AD028AE110
:1005E00093E09093AA028093A90281E090E0909317
:1005F000A6028093A5021092A8021092A702109260
:10060000A2021092A1021092A4021092A30281E011
:100610008093A00210929F0208952091B102309120
:10062000B2024091AF025091B00224173507F9F0A1
:100630006091AD027091AE02E091B302F091B4020C
:10064000E60FF71F8083CB0101968417950729F0E9
:100650009093AE028093AD0204C01092AE0210924D
:10066000AD022F5F3F4F3093B2022093B102089545
:100670009FB7F894E091A902F091AA022091A102FB
:100680003091A202E20FF31F80812F5F3F4F309322
:10069000A2022093A1024091A1025091A2022091B6
:1006A000A5023091A6024217530721F41092A2022C
:1006B0001092A1022091A7023091A8022150310985
:1006C0003093A8022093A7029FBF08951F920F9214
:1006D0000FB60F9211240BB60F928F93EF93FF93E7
:1006E00081E08093A002E1ECF0E080818F7D808347
:1006F000FF91EF918F910F900BBE0F900FBE0F9057
:100700001F9018951F920F920FB60F9211240BB6DF
:100710000F922F933F934F938F939F93EF93FF935A
:100720008091C0004091C6008C71B1F52091A70264
:100730003091A8028091A5029091A602281739074E
:1007400059F1E091A902F091AA028091A30290913F
:10075000A402E80FF91F408301969093A4028093AE
:10076000A3022091A3023091A4028091A50290914E
:10077000A6022817390721F41092A4021092A302AE
:100780008091A7029091A80201969093A80280936D
:10079000A70281E080939F02FF91EF919F918F913B
:1007A0004F913F912F910F900BBE0F900FBE0F9066
:1007B0001F9018958091B1029091B202009789F133
:1007C0002091A002222369F12091AB023091AC026A
:1007D000E091B302F091B402E20FF31F60812F5F4A
:1007E0003F4F3093AC022093AB024091AF02509147
:1007F000B0022417350721F41092AC021092AB021C
:1008000001979093B2028093B1029FB7F8946093DE
:10081000C6008091C10080628093C1001092A00246
:100820009FBF3FB7F89420919F0210929F02809142
:10083000A7029091A8023FBF21110C943809089596
:100840001092ED031092EE031092EA031092E90366
:100850001092F0031092EF030E9432070E94560597
:100860000E94F6040C946104E82FF0E0EE0FFF1FE5
:10087000E151FC4F7183608308950E94A8050E9496
:1008800005080C946604E0911C03F0911D0315C04B
:10089000228133812817390769F4DC01A158BF4F41
:1008A0002C912787DC01AE57BF4F2C91208B22E083
:1008B000248305C00190F081E02D309749F70C9416
:1008C000070510921D0310921C0308950F931F93A8
:1008D000CF93DF93E0911C03F0911D03EF017EC0E5
:1008E0008C81882321F0823009F075C058C08C8536
:1008F0000E94F9048C01009721F482E08C838F8799
:1009000070C09B838A8381E08C83F801ED57FF4F91
:1009100083E494E091838083F801EE57FF4F89854B
:1009200082FB882780F980839985F801838590FB75
:1009300080F98387998593FB992790F990FB82F939
:10094000877083878091ED038F5F8093ED038487A9
:100950008091E9039091EA03968785878D819E8136
:10096000908B878798859F708189807F892B818B69
:100970009F819295907F8F70892B818B98012E5E3D
:100980003F4F4C856A857B8550E0C9010E94180A5B
:10099000C801DF91CF911F910F910C944D07EC1777
:1009A000FD0741F48881998190931D0380931C0376
:1009B0000AC0FC01808191818C179D07D1F7888145
:1009C000998191838083ED85FE85CE01DF91CF9162
:1009D0001F910F9109940990D881C02D209709F09B
:1009E0007FCFDF91CF911F910F91089510921E0339
:1009F000089590911E03911106C0805F80931F039C
:100A00002EE133E002C020E030E0C9010895FC018E
:100A10001082089595E8899F90011124225E3C4F31
:100A2000C9010895FC01DC01A158BF4F1C92DC01F3
:100A3000A058BF4F1D921C92DC01AE57BF4F1C92B5
:100A4000DC01AD57BF4F1D921C921386ADEEB3E093
:100A50008C918F5F8C9384878091E9039091EA0356
:100A600096878587108A1786118A08950C94070542
:100A70002091A7033091A8032115310541F02150A1
:100A800031093093A8032093A7030C94DA08089542
:100A9000DC011596ED91FC9116972081211104C07F
:100AA0000E94CC0781E0089580E008951092A80389
:100AB0001092A7031092A90384E190E0A0E0B0E0B7
:100AC0008093B0039093B103A093B203B093B303A8
:100AD0001092B40388E395E09093B6038093B50336
:100AE00068E475E080E00C943404CF93DF93EC016C
:100AF000E881F9818181883841F58081813611F062
:100B0000813419F58A81803100F180510E94F90405
:100B10000097D9F020E2FC0120832B81E158FF4FA0
:100B200020832C81FC01E058FF4F20839C012E5F25
:100B30003F4F4A816881798150E0C9010E94180ABB
:100B40008091A9038F5F8093A903DF91CF910895CE
:100B5000EF92FF920F931F93CF93DF93CDB7DEB742
:100B60002A970FB6F894DEBF0FBECDBF8091A903C0
:100B7000882309F440C180E00E940A058C01DC0151
:100B80008C91823209F460C0843209F40BC1803246
:100B900009F031C184E2F80180838785908901964C
:100BA00021F41B968C9180FD26C1F80185859685E0
:100BB0002091E9033091EA032817390709F41BC192
:100BC000238521FD18C1FEC02091A4033091A50307
:100BD0008217930709F00FC1D8011C968C91909150
:100BE000A603B82FB91B1B160CF005C18093A603F2
:100BF00083E390E09093A8038093A703DCC0209147
:100C0000E9033091EA03F8018785908928173907AD
:100C100061F085819681019641F0D8011B968C91F7
:100C200082FD03C0C8010E948207F8018785908970
:100C30002091E9033091EA032817390719F001964A
:100C400009F0D9C082E2ABC01092A303F801218958
:100C500022952F70E22FF0E0E230F1050CF05EC03B
:100C6000EE0FFF1FE151FC4F0190F081E02D309716
:100C700009F454C0D8011D968D919C911E979A83BA
:100C8000898351963C9151973F703B832C83980107
:100C90002E5E3F4F3F832E8311962C91119720514A
:100CA0002887A158BF4F2C912987D801A058BF4F42
:100CB0002C912A87D8011B963C91432F437032FF19
:100CC00002C020E201C020E0422BD8011F962D91E6
:100CD0003C9150972F3F3F4F11F424E001C020E09A
:100CE000422BD80119962D913C911A9782179307A0
:100CF00011F498E001C090E0242F292BD80115961B
:100D00008D919C911697019611F480E101C080E0CD
:100D1000822B8D83CE010196099501C080E0F801F8
:100D2000278130852F3F3F4F71F421E030E0609103
:100D3000E9037091EA03D8011F964D915C91509799
:100D40006417750711F020E030E0F801938590FFFB
:100D500002C0811102C020FF21C083E00E94F9047B
:100D60007C010097D9F00E941205F701ED57FF4F63
:100D700086E395E091838083D8011D968D919C91A7
:100D80001E97F701908B8787128A8091A303848B2B
:100D90001C968C91838BC7010E944D0784E2D80179
:100DA0008C9329C0C8010E9407058091A903815036
:100DB0008093A90320C0F80187819085019609F0EE
:100DC00034CF1DCF2091A7033091A803232B09F026
:100DD000FBCE9093A5038093A40384858093A60300
:100DE00083E390E09093A8038093A7038AEA93E0BB
:100DF0000E94DA08E0CF2A960FB6F894DEBF0FBE45
:100E0000CDBFDF91CF911F910F91FF90EF9008958B
:100E10000C940705CF93DF93EC018091B9038823ED
:100E2000F1F080E00E940A05FC018081843191F498
:100E3000DF01A058BF4F2D913C91119721503109EE
:100E40002D933C93232B31F485E18083E158FF4FB0
:100E500080E18083CE01DF91CF910C94DA08DF919D
:100E6000CF9108951092B8031092B7031092B9036E
:100E700082E390E0A0E0B0E08093C0039093C103D0
:100E8000A093C203B093C3031092C4038AE097E017
:100E90009093C6038093C5030895FC01DC01AE570F
:100EA000BF4F8C9191E19083DF01A158BF4F1C92FD
:100EB00080FF03C08FEF9FEF04C08091EB03909100
:100EC000EC0396838583878590899087878320911B
:100ED000E9033091EA03328721872091EE032F5FE7
:100EE0002093EE032483019619F481E498E802C06C
:100EF00081E698E8938382838091B9038F5F809322
:100F0000B90308950F931F93CF93DF938C01FC01D6
:100F1000818180510E94F904EC010097C1F1FC012C
:100F2000ED57FF4F88E097E0918380839E012E5F0D
:100F30003F4FF80141810E5F1F4F50E0B801C901DA
:100F40000E94180A81E18883FE01E158FF4F108258
:100F500081E498E89B838A838FEF9FEF98878F8344
:100F60008091EB039091EC039E838D838091E90344
:100F70009091EA039A8789878091EE038F5F80932F
:100F8000EE038C838091B9038F5F8093B903DF9167
:100F9000CF911F910F910895CF93DF93FC01C581ED
:100FA000D6818091B903882389F080E00E940A05E8
:100FB000FC018081843151F494858981981306C0A5
:100FC00085E180838A81EE57FF4F8083DF91CF9147
:100FD0000895E091B703F091B803833030F0833087
:100FE00031F0853031F481E205C080E003C080E259
:100FF00001C081E0DF01A158BF4F8C9383E1808362
:101000001092B8031092B7030895CF93DF938091A5
:10101000B903882309F44FC080E00E940A05EC015F
:1010200088818331A1F0853121F0813109F043C0FD
:1010300031C0FE01ED57FF4F0190F081E02DCE0150
:1010400009958091B90381508093B90334C0FE01A2
:10105000E158FF4F8081811109C02D853E85809127
:10106000E9039091EA032817390719F085E188838D
:1010700022C08B8580FFFACF84E18883C058DF4F80
:1010800085E190E0998388838AEB93E0DF91CF91AB
:101090000C94DA080E94390181110DC0D093B80375
:1010A000C093B70382E188836981CE010296DF9104
:1010B000CF910C944A01DF91CF9108950E94B10025
:1010C0000E94C4080E9406010C9420040E94DE01C4
:1010D0000E943D040C94E9080F931F93CF93DF9374
:1010E000FC018091C7039091C803B681A781308528
:1010F00021850097D1F14B2F5A2F632F722FDC01DE
:10110000C0E0D0E001C0D90112960D911D912D9142
:101110003C911597401751076207730758F4041B59
:10112000150B260B370B12960D931D932D933C93A5
:1011300015970BC0401B510B620B730B2D913C910B
:101140001197ED0121153105F1F642835383648334
:101150007583209739F08881998191838083F98301
:10116000E8830DC09183808306C011821082B28310
:10117000A38334832583F093C803E093C703DF91EF
:10118000CF911F910F9108951092C8031092C70339
:101190000895E091C703F091C80306C0E817F90766
:1011A00039F00190F081E02D3097C1F780E008958B
:1011B00081E00895CF93DF93EC010E94C90881116B
:1011C00005C0CE01DF91CF910C946C08DF91CF91D7
:1011D0000895CF92DF92EF92FF92CF93DF938091A9
:1011E000E8038823D1F18FB7F8942091E803109297
:1011F000E8038FBF30E0AAE0B0E00E94EA096B018B
:101200007C0114C0C41AD50AE60AF70A88819981BC
:101210009093C8038093C7038A85813019F4CE0167
:101220000E946C08EB85FC85CE010995C091C7032F
:10123000D091C803209789F04A815B816C817D81C0
:10124000C416D506E606F706E8F64C195D096E09E0
:101250007F094A835B836C837D83DF91CF91FF900D
:10126000EF90DF90CF90089581E08093DA030895A6
:101270000F931F93CF93DF938C01C0E0D0E003C0A6
:101280000E9438032196C017D107D1F7DF91CF9183
:101290001F910F910895E091C903F0E0E154FC4FD4
:1012A000808383E08093DA030895CF93DF93CDB7F3
:1012B000DEB762970FB6F894DEBF0FBECDBF0E94B7
:1012C0005E0860E076E980E090E00E94B30280ED85
:1012D000882E90EC792E24E6C22ED12CE12CF12C14
:1012E00034E3A32E39E0B32E6624639442E0942EB7
:1012F00051E1552E64E0462E7BE0372E0E946608B1
:101300000E94DA038091DA038130B9F018F083305B
:10131000A9F717C08AB87BB8C092E103D092E20364
:10132000E092E303F092E4031092E503B092E70346
:10133000A092E6036092DA03E1CF3092C9038BE01A
:1013400042C08091C9038A31D9F5E0E0F2E0DE01C4
:101350001196852D01900D928A95E1F70AEC13E024
:10136000F80191918F01965A892F82958F70E1E053
:10137000F0E0EC0FFD1FE80FF11D80819A8B0E94B9
:101380000D039A899F70E1E0F0E0EC0FFD1FE90F7B
:10139000F11D80810E940D0380E20E940D03F3E0A5
:1013A0000A3D1F07E9F68DE00E940D038AE00E94C6
:1013B0000D038BED93E00E94DA084092DA039ECF92
:1013C0008F5F8093C9030E9431010E947301909244
:1013D000DA0394CFA29FB001B39FC001A39F01D0B5
:1013E000B29F700D811D1124911D0895A1E21A2E46
:1013F000AA1BBB1BFD010DC0AA1FBB1FEE1FFF1FB9
:10140000A217B307E407F50720F0A21BB30BE40B08
:10141000F50B661F771F881F991F1A9469F760954F
:101420007095809590959B01AC01BD01CF01089509
:10143000FB01DC0102C001900D9241505040D8F7F1
:061440000895F894FFCFAF
:101446003031323334353637383961626364656634
:02145600000094
:00000001FF
