:020000021000EC
:10F000000C9490F80C94AFF80C94AFF80C94AFF803
:10F010000C94AFF80C94AFF80C94AFF80C94AFF8D4
:10F020000C94AFF80C94AFF80C94AFF80C94AFF8C4
:10F030000C94AFF80C94AFF80C94AFF80C94AFF8B4
:10F040000C94AFF80C94AFF80C94AFF80C94AFF8A4
:10F050000C94AFF80C94AFF80C94AFF80C94AFF894
:10F060000C94AFF80C94AFF80C94AFF80C94AFF884
:10F070000C94AFF80C94AFF80C94AFF80C94AFF874
:10F080000C94AFF80C94AFF80C94AFF80C94AFF864
:10F090000C94AFF80C94AFF80C94AFF80C94AFF854
:10F0A0000C94AFF80C94AFF80C94AFF80C94AFF844
:10F0B0000C94AFF80C94AFF80C94AFF80C94AFF834
:10F0C0000C94AFF80C94AFF80C94AFF80C94AFF824
:10F0D0000C94AFF80C94AFF80C94AFF80C94AFF814
:10F0E0000C94AFF80C94AFF80C94AFF80C94AFF804
:10F0F0000C94AFF80C94AFF80C94AFF80C94AFF8F4
:10F100000C94AFF80C94AFF80C94AFF80C94AFF8E3
:10F110000C94AFF80C94AFF80C94AFF80C94AFF8D3
:10F1200011241FBECFEFD1E4DEBFCDBF12E0A0E0BF
:10F13000B2E0E0E6F8EF01E00BBF02C007900D92ED
:10F14000A230B107D9F713E0A2E0B2E001C01D92EE
:10F15000AD30B107E1F70E94BEF90C942EFC0C947F
:10F1600000F890910502913019F0923041F0089525
:10F170009091C00095FFFCCF8093C60008959091B8
:10F18000C80095FFFCCF8093CE000895CF93982FB1
:10F190009595959595959595905D8F70C82F8A302A
:10F1A00044F4C05D892F0E94B1F88C2FCF910C944C
:10F1B000B1F8C95A892F0E94B1F88C2FCF910C94C5
:10F1C000B1F8CF92DF92EF92FF92809105028130E9
:10F1D00061F1823031F080E0FF90EF90DF90CF90CE
:10F1E0000895C12CD12C76018091C80087FD16C0EE
:10F1F0008FEFC81AD80AE80AF80A81E4C81682E430
:10F20000D8068FE0E806F10478F3E0910202F0916D
:10F21000030209958091C80087FFEACF8091CE0054
:10F22000FF90EF90DF90CF900895C12CD12C760104
:10F230008091C00087FD16C08FEFC81AD80AE80A6F
:10F24000F80A81E4C81682E4D8068FE0E806F104E3
:10F2500078F3E0910202F091030209958091C000D9
:10F2600087FFEACF8091C600FF90EF90DF90CF90AC
:10F270000895CF930E94E1F8C82F0E94B1F8C136DB
:10F2800034F4C0330CF0C0538C2FCF910895C75580
:10F290008C2FCF910895CF930E9439F9C82F0E94E7
:10F2A00039F990E1C99F800D1124CF9108952091E3
:10F2B0000502815060F0213059F02230D1F7909151
:10F2C000C80097FFFCCF9091CE008150A0F7089521
:10F2D0009091C00097FFFCCF9091C600EACFCF93EA
:10F2E000C82F0E94E1F8803279F0809104028F5F8C
:10F2F00080930402853011F0CF910895E0910202CD
:10F30000F0910302CF91099484E10E94B1F88C2F0F
:10F310000E94B1F880E1CF910C94B1F80E94E1F81D
:10F32000803269F0809104028F5F809304028530FF
:10F3300009F00895E0910202F0910302099484E13A
:10F340000E94B1F880E10C94B1F815C02E9A2FEF0D
:10F3500031EE94E0215030409040E1F700C00000D1
:10F360002E982FEF31EE94E0215030409040E1F79D
:10F3700000C0000081508111E9CF0895000081E0B4
:10F380008093050280E18093C4001092C500109222
:10F39000C00086E08093C20088E18093C100689835
:10F3A000709A269A82E02E9A2FEF31EE94E0215047
:10F3B00030409040E1F700C000002E98EFEFF1EEF2
:10F3C00024E0E150F0402040E1F700C00000982F19
:10F3D00081509111E8CF2E9A0E94E1F88033B1F16B
:10F3E0008133B9F1803409F454C0813409F45AC02E
:10F3F000823409F469C0853409F46CC0803531F178
:10F40000823521F1813511F1853509F469C08635E0
:10F4100009F471C0843609F477C0843709F4DDC07B
:10F42000853709F438C1863709F44AC0809104024F
:10F430008F5F80930402853079F6E0910202F091AB
:10F44000030209950E94E1F8803351F60E948EF97B
:10F45000C3CF0E94E1F8803249F784E10E94B1F8FD
:10F4600081E40E94B1F886E50E94B1F882E50E942D
:10F47000B1F880E20E94B1F889E40E94B1F883E516
:10F480000E94B1F880E50E94B1F880E10E94B1F8D5
:10F49000A3CF0E94E1F88638C8F20E94E1F80E94EA
:10F4A0008EF99ACF0E94E1F8803809F41DC18138A5
:10F4B00009F416C1823809F41BC1883909F400C166
:10F4C00080E00E946FF988CF84E10E9457F90E9482
:10F4D0008EF982CF85E00E9457F90E948EF97CCF89
:10F4E0000E94E1F8809306020E94E1F880930702EF
:10F4F0000E948EF971CF0E94E1F8803309F4E4C0D4
:10F5000083E00E9457F9DCCF0E94E1F88093090361
:10F510000E94E1F88093080380910C038E7F809312
:10F520000C030E94E1F8853409F4F8C080910803C7
:10F5300090910903892BA1F068E0E62E62E0F62E97
:10F5400000E010E00E94E1F8F70181937F010F5F76
:10F550001F4F80910803909109030817190790F332
:10F560000E94E1F8803209F061CF80910C0380FFA6
:10F57000E5C08091060290910702880F991F909331
:10F580000702809306022091080330910903232B80
:10F59000E9F048E0E42E42E0F42E00E010E0F7014C
:10F5A00061917F010E9420FC8091060290910702E8
:10F5B000019690930702809306020F5F1F4F2091E0
:10F5C0000803309109030217130748F384E10E94EE
:10F5D000B1F880E10E94B1F8FFCE0E94E1F880937B
:10F5E00009030E94E1F8809308038091060290913C
:10F5F000070220910C0397FD9DC02D7F20930C03E3
:10F60000880F991F90930702809306020E94E1F8E9
:10F61000853409F489C080910C038E7F80930C039C
:10F620000E94E1F8803209F0D7CE84E10E94B1F85F
:10F630008091080390910903892B09F43DC000E0F3
:10F6400010E0809106029091070216C0FC0184919F
:10F650000E94B1F880910602909107020196909362
:10F660000702809306020F5F1F4F2091080330911D
:10F6700009030217130700F520910C0320FD3CC07D
:10F6800021FFE4CFA0E0B0E01196ABBFFC01879171
:10F690000E94B1F8DFCF0E94E1F8803209F0C6CEB7
:10F6A00084E10E94B1F88EE10E94B1F887EA0E94DD
:10F6B000B1F881E00E94B1F880E10E94B1F88CCEEF
:10F6C00083E00E946FF988CE0E94E1F80E94E1F881
:10F6D000182F0E94E1F8112309F4A2C01130D1F0D3
:10F6E00081E00E946FF978CE82E00E946FF974CEBB
:10F6F00080E10E946FF970CE0E9418FC0E94B1F860
:10F7000080910602909107020196909307028093E0
:10F710000602A9CF87EA0E946FF95ECE80910C03A2
:10F72000816080930C0302CF80910C0381608093F1
:10F730000C0376CF226020930C0362CF80910702E6
:10F7400087FD72C010920B0380E08BBF8091060290
:10F7500090910702880F991F9093070280930602E9
:10F760008091080380FF09C08091080390910903EC
:10F7700001969093090380930803F894F999FECFBA
:10F780001127E0910602F0910702C8E0D2E08091D3
:10F79000080390910903103091F400915700017013
:10F7A0000130D9F303E000935700E895009157002A
:10F7B00001700130D9F301E100935700E8950990F9
:10F7C00019900091570001700130D9F301E00093C6
:10F7D0005700E8951395103898F0112700915700BD
:10F7E00001700130D9F305E000935700E8950091CE
:10F7F000570001700130D9F301E100935700E895FB
:10F800003296029709F0C7CF103011F00296E5CF7B
:10F81000112484E10E94B1F880E10E94B1F8DCCDAE
:10F820008EE10E946FF9D8CD81E080930B038DCFDC
:10F83000F999FECF92BD81BDF89A992780B50895B8
:10F84000262FF999FECF1FBA92BD81BD20BD0FB6FC
:10F85000F894FA9AF99A0FBE01960895F894FFCF9A
:02F86000800026
:040000031000F000F9
:00000001FF
