:100000000C9490000C94AF000C94AF000C94AF00D3
:100010000C94AF000C94AF000C94AF000C94AF00A4
:100020000C94AF000C94AF000C94AF000C94AF0094
:100030000C94AF000C946A020C94AF000C94AF00C7
:100040000C94AF000C94AF000C94AF000C94AF0074
:100050000C94AF000C94AF000C94AF000C94AF0064
:100060000C94AF000C9446030C942A030C94AF003C
:100070000C94AF000C94AF000C94AF000C94AF0044
:100080000C94AF000C94AF000C94AF000C94AF0034
:100090000C94AF000C94AF000C94AF000C94AF0024
:1000A0000C94AF000C94AF000C94D2000C94E300BD
:1000B0000C94AF000C94AF000C94AF000C94AF0004
:1000C0000C94AF000C94AF000C94AF000C94AF00F4
:1000D0000C94AF000C94AF000C94AF000C94AF00E4
:1000E0000C94AF000C94AF000C94AF000C94AF00D4
:1000F0000C94C7010C94AF000C94AF000C948F01CA
:100100000C94AF000C94AF000C94AF000C94AF00B3
:100110000C94AF000C94AF000C94AF000C94AF00A3
:1001200011241FBECFEFD1E4DEBFCDBF12E0A0E0AF
:10013000B2E0EEE6F9E100E00BBF02C007900D92DD
:10014000A231B107D9F719E0A2E1B2E001C01D92D6
:10015000A032B107E1F70E943D0C0C94B50C0C9451
:10016000000014BE88E10FB6F894809360001092EE
:1001700060000FBE78940C94BD001092130980E2C9
:100180009EE49093A9008093A800E1EAF0E088E063
:100190008083808182608083E2E7F0E080818260FA
:1001A000808308951F920F920FB60F9211248F93A0
:1001B000809113098F5F809313098F910F900FBE69
:1001C0000F901F9018951F920F920FB60F92112447
:1001D0008F9381E0809312028F910F900FBE0F904A
:1001E0001F90189593E09093420180934201909163
:1001F00041019F718913FBCF089580911D028823CF
:1002000011F086E101C088E00C94F200E9E3F1E02E
:1002100080818160808388E00E94F200EEE6F1E058
:1002200080818062808380818F7E80838FEF809346
:100230004F01EEE4F1E080818860808380818064FA
:100240008083ECE4F1E080818068808381E18093A9
:100250006D011092170210921D0281E08093160228
:100260000895E7E1F2E090819860908380931D0209
:100270000895E7E1F2E09081916090838093180205
:100280000895E7E1F2E020812260208390931A0232
:10029000809319020895E7E1F2E020812460208331
:1002A00090931C0280931B02089580911602813066
:1002B00049F481E090E020911702211105C080E00F
:1002C00090E002C081E090E0817008951F93CF9389
:1002D000DF9300D0CDB7DEB7182F89E169839A8309
:1002E0000E94F2006981862F8E5F80938001E12F4A
:1002F0009A81F92FA1E8B1E002C081918D938E2FF0
:10030000811B8617D0F382E08093420183E08093C3
:1003100016020F900F90DF91CF911F9108951F92B9
:100320000F920FB60F9211240BB60F922F933F939B
:100330004F935F936F937F938F939F93AF93BF93ED
:10034000EF93FF93809141018F71893169F489E0C6
:100350000E94F20084E0809316028091420182950F
:100360008695877080931502FF91EF91BF91AF91B1
:100370009F918F917F916F915F914F913F912F91BD
:100380000F900BBE0F900FBE0F901F9018951F92ED
:100390000F920FB60F9211248F9389E08093420140
:1003A000809147018093140280917B018093130216
:1003B00085E0809316028F910F900FBE0F901F90D3
:1003C00018951F93CF93DF9300D000D01F92CDB725
:1003D000DEB7809116028430B1F1853009F447C050
:1003E000813009F06EC010911702112309F469C021
:1003F00088E00E94F20010FF09C0909118029F71DE
:1004000080914801807E892B80934801809117025A
:1004100081FF08C0809119028093620180911A02C5
:10042000809363018091170282FF08C080911B02B4
:100430008093600180911C02809361010E94FD0005
:10044000109217023EC0809115020E94C40980914B
:1004500041018F718930D9F72FC0FC01E058FE4F60
:100460002081FC01E25EFD4F20834F5F01C040E030
:1004700020911302842F90E030E0281739076CF7A1
:100480008EE192E09A8389838091130282508B835C
:10049000E0911302F0E0E25EFD4F80818C83809159
:1004A00014028A558D83CE0101960E94D206809156
:1004B00041018F718930D9F781E0809316020E9443
:1004C000FD000F900F900F900F900F90DF91CF9144
:1004D0001F9108951F920F920FB60F9211248F93C0
:1004E00081E080939E028F910F900FBE0F901F901E
:1004F00018959B01AC0184E0220F331F441F551F48
:100500008A95D1F760E078E488EE91E00E948A0C49
:100510002150310941095109BB27A52F942F832F61
:100520008093C5002093C40082E08093C00088E9D6
:100530008093C10086E08093C20085EB92E09093A7
:10054000B4028093B30288EC90E09093B002809361
:10055000AF021092B2021092B1021092AC0210924D
:10056000AB021092AE021092AD022EE733E0309350
:10057000AA022093A9029093A6028093A50210924A
:10058000A8021092A7021092A2021092A102109249
:10059000A4021092A30281E08093A00210929F0215
:1005A00008952091B1023091B2024091AF02509172
:1005B000B00224173507F9F06091AD027091AE02D8
:1005C000E091B302F091B402E60FF71F8083CB01F4
:1005D00001968417950729F09093AE028093AD029F
:1005E00004C01092AE021092AD022F5F3F4F3093C5
:1005F000B2022093B10208959FB7F894E091A90246
:10060000F091AA022091A1023091A202E20FF31F01
:1006100080812F5F3F4F3093A2022093A10240912F
:10062000A1025091A2022091A5023091A602421788
:10063000530721F41092A2021092A1022091A70266
:100640003091A802215031093093A8022093A702CB
:100650009FBF08951F920F920FB60F9211240BB6F1
:100660000F928F93EF93FF9381E08093A002E1ECD0
:10067000F0E080818F7D8083FF91EF918F910F90CB
:100680000BBE0F900FBE0F901F9018951F920F92E8
:100690000FB60F9211240BB60F922F933F934F93E7
:1006A0008F939F93EF93FF938091C0004091C6007A
:1006B0008C71B1F52091A7023091A8028091A5021A
:1006C0009091A6022817390759F1E091A902F091FB
:1006D000AA028091A3029091A402E80FF91F40831F
:1006E00001969093A4028093A3022091A3023091DB
:1006F000A4028091A5029091A6022817390721F43F
:100700001092A4021092A3028091A7029091A802D5
:1007100001969093A8028093A70281E080939F02A4
:10072000FF91EF919F918F914F913F912F910F905A
:100730000BBE0F900FBE0F901F9018958091B102C5
:100740009091B202009789F12091A002222369F1D1
:100750002091AB023091AC02E091B302F091B4026F
:10076000E20FF31F60812F5F3F4F3093AC02209365
:10077000AB024091AF025091B0022417350721F42B
:100780001092AC021092AB0201979093B202809348
:10079000B1029FB7F8946093C6008091C100806257
:1007A0008093C1001092A0029FBF3FB7F8942091A0
:1007B0009F0210929F028091A7029091A8023FBFD2
:1007C00021110C940C0C089510921809109219091B
:1007D000109215091092140910921B0910921A090F
:1007E00010921D0910921C0910921F0910921E09E7
:1007F0000E9400090E94AE060E94E5040E943B048C
:100800000C94630590931509809314090C944B0183
:1008100090931709809316090C944101E82FF0E09A
:10082000EE0FFF1FE65EF64F7183608308950E940E
:1008300005070E94E0090C945504E0914704F091EB
:10084000480415C0228133812817390769F4DC0177
:10085000A158BF4F2C912787DC01AE57BF4F2C9179
:10086000208B22E0248305C00190F081E02D309799
:1008700049F70C940F05109248041092470408950C
:10088000FC01148217861382128280914704909192
:100890004804009719F41182108202C0918380836A
:1008A000F0934804E093470408950F931F93CF9368
:1008B000DF93E0914704F0914804EF017EC08C8102
:1008C000882321F0823009F075C058C08C850E94C1
:1008D000EC048C01009721F482E08C838F8770C038
:1008E0009B838A8381E08C83F801ED57FF4F8DE174
:1008F00094E091838083F801EE57FF4F898582FB56
:10090000882780F980839985F801838590FB80F999
:100910008387998593FB992790F990FB82F98770DB
:100920008387809118098F5F80931809848780914D
:10093000140990911509968785878D819E81908BEA
:10094000878798859F708189807F892B818B9F8184
:100950009295907F8F70892B818B98012E5E3F4FEF
:100960004C856A857B8550E0C9010E94AC0CC801AA
:10097000DF91CF911F910F910C941B09EC17FD078C
:1009800041F48881998190934804809347040AC078
:10099000FC01808191818C179D07D1F78881998115
:1009A00091838083ED85FE85CE01DF91CF911F91EC
:1009B0000F9109940990D881C02D209709F07FCF1D
:1009C000DF91CF911F910F910895109249041092D9
:1009D000CE0410925305089590914904992359F03B
:1009E0009091CE04992351F090915305911113C029
:1009F00022E030E005C020E030E002C021E030E03D
:100A000095E8929FF001939FF00D1124E75BFB4F57
:100A1000805F818302C0E0E0F0E0CF010895FC0137
:100A20001082089595E8899F90011124275B3B4F20
:100A3000C9010895FC01DC01A158BF4F1C92DC01E3
:100A4000A058BF4F1D921C92DC01AE57BF4F1C92A5
:100A5000DC01AD57BF4F1D921C921386A8E1B9E08F
:100A60008C918F5F8C9384878091140990911509E4
:100A700096878587108A1786118A0895E8EDF5E034
:100A800040E050E0208131812817390749F486E0A1
:100A9000849F9001859F300D112428523A4F0DC03C
:100AA0004F5F5F4F36964436510561F7019619F452
:100AB0002AE238E002C020E030E0C90108950C9439
:100AC0000F050C940F05E8EDF5E08FEF9FEF918394
:100AD0008083369628E0E033F207C9F708950E9434
:100AE0003E05009729F02FEF3FEFFC013183208373
:100AF0000895EF92FF920F931F93CF93DF93EC0132
:100B000009851A8517FF05C08D859E850817190769
:100B100041F58D819E81019621F1ED84FE84C7010E
:100B20000E943E05FC01009769F082819381801745
:100B3000910799F0DE01A158BF4F9C9185818917DB
:100B400060F407C08FEF9FEF0E943E05FC01F18229
:100B5000E0821383028383E08483C158DF4F88815E
:100B60008583DF91CF911F910F91FF90EF900895B2
:100B70000F931F93CF93DF9300D000D000D0CDB759
:100B8000DEB78C01FC01878590890E943E059C019F
:100B9000009799F1F801E158FF4F8081811104C05D
:100BA00083E0F90184830BC0F9018481815084833F
:100BB000811105C08FEF9FEF918380831EC0C90113
:100BC000885D95400697CCF0C901069746E0FC0188
:100BD000DE01119601900D924A95E1F746E0F90188
:100BE000DC0101900D924A95E1F786E0FE01319615
:100BF000D90101900D928A95E1F726960FB6F894E7
:100C0000DEBF0FBECDBFDF91CF911F910F91089531
:100C10008F3F2FEF9207D1F0E8EDF5E020E030E0D4
:100C2000408151814817590759F486E0829FF001AD
:100C3000839FF00D1124E852FA4F2281338108C0BE
:100C40002F5F3F4F36962436310551F72FEF3FEF98
:100C5000C9010895CF92DF92EF92FF920F931F93F5
:100C6000CF93DF938C01FC01E784F088C7010E94D9
:100C700008060196B9F0F801ED57FF4F81E695E0BF
:100C800091838083F801EE57FF4F82E08083C80193
:100C9000DF91CF911F910F91FF90EF90DF90CF9058
:100CA0000C941B09F801C584D68485E00E94EC04ED
:100CB000EC010097A1F00E941A05FE01ED57FF4FCD
:100CC0008FE595E091838083D88ACF8681E08A8BF7
:100CD000DC8ACB8AFE8AED8ACE010E941B09C801FC
:100CE000DF91CF911F910F91FF90EF90DF90CF9008
:100CF0000C940F05DC011596ED91FC9116978381FC
:100D000094810C946F050C940F05E4E3F8E040E047
:100D1000208131812115310529F02150310931839C
:100D2000208341E0359628E0E636F20789F7411145
:100D30000C94C70A0895DC011596ED91FC91169765
:100D40002081211103C00E94A00904C0213021F498
:100D50000E947A0681E0089580E00895E4E3F8E0D7
:100D600011821082359688E0E636F807C9F71092AE
:100D7000630884E190E0A0E0B0E080936A0890937B
:100D80006B08A0936C08B0936D0810926E0885E80C
:100D900096E09093700880936F086BE976E080E0AE
:100DA0000C940E04CF93DF93EC01E881F9818181EB
:100DB000883841F58081813611F0813419F58A81B6
:100DC000803100F180510E94EC040097D9F020E2BC
:100DD000FC0120832B81E158FF4F20832C81FC01F3
:100DE000E058FF4F20839C012E5F3F4F4A8168816E
:100DF000798150E0C9010E94AC0C809163088F5F3B
:100E000080936308DF91CF9108957F928F929F9294
:100E1000AF92BF92CF92DF92EF92FF920F931F9308
:100E2000CF93DF93CDB7DEB72A970FB6F894DEBF26
:100E30000FBECDBF80916308882309F495C1B12C02
:100E400094E2A92E23E8C22E26E0D22E32E2832E8F
:100E500043E2742E55E0952E8B2D0E9412058C01D5
:100E6000DC018C91823209F4BBC020F4803209F09D
:100E70006FC107C0833209F45FC1843209F068C1D1
:100E80005FC1F801A08287859089019629F4D80175
:100E90001B968C9180FD5CC120911409309115093D
:100EA000F801858596852817390709F451C183858E
:100EB00081FD4EC1C8010E947905A1E3B8E020E0A0
:100EC00030E06FEF13968D919C911497892B81F1EF
:100ED000F801458556858D919C91119748175907C2
:100EE00041F58485929EF001939EF00D1124EF5CF4
:100EF000F74F9281282F291B121634F4828387E939
:100F000090E09483838329C12091140930911509BD
:100F1000D80117968D919C9118972817390709F0D9
:100F200017C11F968D919C9150970E946F0510C11B
:100F3000622F2F5F3F4F15962A30310519F66F3F0C
:100F400009F406C1292D6203F0011124EF5CF74F6B
:100F5000D8011D968D919C911E97918380831C963C
:100F60008C91828387E990E09483838384E698E080
:100F70000E94C70AF2C02091140930911509F801A6
:100F8000878590892817390761F0858196810196B8
:100F900041F0D8011B968C9182FD03C0C8010E94CC
:100FA00056098091140990911509F8012785308917
:100FB0008217930719F02F3F3F4F19F4D8018C92F5
:100FC000C7C0F801278130858217930709F0C0C098
:100FD00085819681019609F4BBC0D8017C92B8C086
:100FE00010923008F801218922952F70E22FF0E04D
:100FF000E430F1050CF05EC0EE0FFF1FE65EF64F29
:101000000190F081E02D309709F454C0D8011D966D
:101010008D919C911E979A83898351963C9151970B
:101020003F703B832C8398012E5E3F4F3F832E837E
:1010300011962C91119720512887A158BF4F2C91C0
:101040002987D801A058BF4F2C912A87D8011B9619
:101050003C91432F437032FF02C020E201C020E0E8
:10106000422BD8011F962D913C9150972F3F3F4F17
:1010700011F424E001C020E0422BD80119962D91F3
:101080003C911A978217930711F498E001C090E001
:10109000242F292BD80115968D919C911697019696
:1010A00011F480E101C080E0822B8D83CE01019696
:1010B000099501C080E0F801278130852F3F3F4F1F
:1010C00071F421E030E06091140970911509D801A4
:1010D0001F964D915C9150976417750711F020E0B1
:1010E00030E02170F801938590FF02C0811102C0A9
:1010F0002223F9F083E00E94EC047C010097C9F000
:101100000E941A05F701ED57FF4FD182C082D80126
:101110001D968D919C911E97F701908B8787128A5F
:1011200080913008848B1C968C91838BC7010E9420
:101130001B09D801AC920CC0C8010E942A0603C04A
:10114000C8010E940F058091630881508093630855
:10115000B394B3E0BB1280CE07C0F80187819085BD
:10116000019609F01ECF07CF2A960FB6F894DEBF7E
:101170000FBECDBFDF91CF911F910F91FF90EF90E8
:10118000DF90CF90BF90AF909F908F907F90089509
:101190000C940F05FF920F931F93CF93DF93EC01F5
:1011A00080917308882331F110E005E180E1F82E89
:1011B000812F0E941205FC018081843181F4DF01BE
:1011C000A058BF4F2D913C911197215031092D937B
:1011D0003C93232B21F40083E158FF4FF0821F5FE3
:1011E000133031F7CE01DF91CF911F910F91FF9016
:1011F0000C94C70ADF91CF911F910F91FF90089532
:1012000010927208109271081092730882E390E0B5
:10121000A0E0B0E080937A0890937B08A0937C08CC
:10122000B0937D0810927E088AEC98E09093800835
:1012300080937F080895CF93DF93EC01FC01EE5774
:10124000FF4F808191E19883FE01E158FF4F1082AA
:1012500080FF03C08FEF9FEF04C08091160990912B
:1012600017099E838D838F8598890E940806988729
:101270008F8320911409309115093A87298720918D
:1012800019092F5F209319092C83019619F481E421
:1012900098E802C081E698E89B838A83809173086E
:1012A0008F5F80937308DF91CF9108950F931F9301
:1012B000CF93DF938C01FC01818180510E94EC046B
:1012C000EC010097C1F1FC01ED57FF4F88EC98E06D
:1012D000918380839E012E5F3F4FF80141810E5F15
:1012E0001F4F50E0B801C9010E94AC0C81E1888316
:1012F000FE01E158FF4F108281E498E89B838A83C6
:101300008FEF9FEF98878F8380911609909117092F
:101310009E838D8380911409909115099A878987FE
:10132000809119098F5F809319098C8380917308CC
:101330008F5F80937308DF91CF911F910F91089574
:101340001F93CF93DF93FC01C581D68180917308F1
:101350008823B1F010E0812F0E941205FC018081EA
:10136000843159F494858981981307C085E180837D
:101370008A81EE57FF4F808303C01F5F133059F7F8
:10138000DF91CF911F910895E0917108F09172085B
:10139000833030F0833031F0853031F481E205C0A4
:1013A00080E003C080E201C081E0DF01A158BF4FAF
:1013B0008C9383E1808310927208109271080895D3
:1013C000CF92DF92EF92FF920F931F93CF93DF9311
:1013D00080917308882309F455C0F12C95E1E92E1A
:1013E00024E1D22E01E110E032E1C32E8F2D0E94C4
:1013F0001205EC018881833199F0853179F18131D1
:10140000E9F50E945501811139C0D0937208C0934B
:101410007108C8826981CE0102960E9466012EC0C1
:10142000FE01E158FF4F8081811116C04D855E8518
:1014300020911409309115094217530769F48B85DF
:1014400080FF0AC0D882C058DF4F1983088384E721
:1014500098E00E94C70A12C0E88210C0CE010E9424
:10146000B805FE01ED57FF4F0190F081E02DCE0150
:10147000099580917308815080937308F39483E0F9
:10148000F812B4CFDF91CF911F910F91FF90EF90A1
:10149000DF90CF9008950E94B1000E94B10A0E948F
:1014A00006010C94E4030E94E1010E9417040C94CD
:1014B000D60A0F931F93CF93DF93FC01809181088D
:1014C00090918208B681A781308521850097D1F15E
:1014D0004B2F5A2F632F722FDC01C0E0D0E001C0E8
:1014E000D90112960D911D912D913C9115974017A0
:1014F00051076207730758F4041B150B260B370BB3
:1015000012960D931D932D933C9315970BC0401B82
:10151000510B620B730B2D913C911197ED0121152D
:101520003105F1F64283538364837583209739F044
:101530008881998191838083F983E8830DC09183A9
:10154000808306C011821082B283A38334832583F3
:10155000F0938208E0938108DF91CF911F910F9162
:10156000089510928208109281080895E0918108F0
:10157000F091820806C0E817F90739F00190F08170
:10158000E02D3097C1F780E0089581E00895CF9372
:10159000DF93EC010E94B60A811105C0CE01DF91F4
:1015A000CF910C94590ADF91CF910895CF92DF9299
:1015B000EF92FF92CF93DF93809113098823D1F1AB
:1015C0008FB7F89420911309109213098FBF30E060
:1015D000AAE0B0E00E947E0C6B017C0114C0C41A2A
:1015E000D50AE60AF70A8881998190938208809348
:1015F00081088A85813019F4CE010E94590AEB8551
:10160000FC85CE010995C0918108D0918208209770
:1016100089F04A815B816C817D81C416D506E6061E
:10162000F706E8F64C195D096E097F094A835B836A
:101630006C837D83DF91CF91FF90EF90DF90CF900F
:101640000895FF920F931F93CF93DF93CDB7DEB72B
:1016500061970FB6F894DEBF0FBECDBF8C0181E15C
:10166000E0E0F2E0DE01119601900D928A95E1F73B
:1016700081E0809312098CE60E94D10281E70E94EA
:10168000D10289E60E94D1028AE30E94D10280E25F
:101690000E94D102D80118968C9182958F70E1E05A
:1016A000F0E0EC0FFD1FE80FF11D80810E94D102D8
:1016B000F80180858F70E1E0F0E0EC0FFD1FE80F8E
:1016C000F11D80810E94D10280E20E94D10280E25D
:1016D0000E94D10282E70E94D10283E70E94D102D8
:1016E00083E70E94D10289E60E94D1028AE30E9428
:1016F000D10280E20E94D102D80119968C91829584
:101700008F70E1E0F0E0EC0FFD1FE80FF11D80812C
:101710000E94D102F80181858F70E1E0F0E0EC0FCA
:10172000FD1FE80FF11D80810E94D10280E20E941E
:10173000D10280E20E94D10284E60E94D10281E6B9
:101740000E94D10284E70E94D10281E60E94D10268
:101750008AE30E94D10280E20E94D102F12C0BC0E8
:10176000D8011596ED91FC911697EF0DF11D808132
:101770000E94D102F394F8018781F81688F38DE076
:101780000E94D1028AE00E94D1028DE00E94D10223
:101790008AE00E94D10281E061960FB6F894DEBF24
:1017A0000FBECDBFDF91CF911F910F91FF90089594
:1017B000CF938091F108811127C081E090E0909350
:1017C000F8088093F708C1E0C093F908C093FA08BD
:1017D00082E08093FB0883E099E09093FD0880937A
:1017E000FC08C093FE0888E09CE090930009809379
:1017F000FF0882EF98E00E944004809103098F5F08
:1018000080930309C093F108CF9108950C94D80BED
:101810001092F1080C94D80BEF92FF920F931F9344
:10182000CF93DF931F92CDB7DEB78C01E12CF12C63
:1018300019C00E94FC02909183089D3621F489838F
:101840000E94D80B8981909183089D3640F4E92F3E
:10185000F0E0EC57F74F80839F5F909383088FEF02
:10186000E81AF80AE016F10621F70F90DF91CF9100
:101870001F910F91FF90EF9008950E944B0A60E036
:1018800072EC81E090E00E94790288EEC82E83E03D
:10189000D82EE12CF12CC6E0DCE00E94530A0E9415
:1018A0009E03809104098111F8CF80E090E00E94AE
:1018B000020487E695E40E9408048AE10E94390147
:1018C00081E00E94310161E27BE081E00E940E0430
:1018D000C0920B09D0920C09E0920D09F0920E090A
:1018E00011E010930F09D0931109C093100985E0FE
:1018F00099E00E94C70A10930409CFCFA29FB001BC
:10190000B39FC001A39F01D0B29F700D811D112410
:10191000911D0895A1E21A2EAA1BBB1BFD010DC04B
:10192000AA1FBB1FEE1FFF1FA217B307E407F5078F
:1019300020F0A21BB30BE40BF50B661F771F881F6B
:10194000991F1A9469F760957095809590959B0101
:10195000AC01BD01CF010895FB01DC0102C0019083
:0E1960000D9241505040D8F70895F894FFCFF3
:10196E003031323334353637383961626364656607
:02197E00000067
:00000001FF
