:100000000C9490000C94AF000C94AF000C94AF00D3
:100010000C94AF000C94AF000C94AF000C94AF00A4
:100020000C94AF000C94AF000C94AF000C94AF0094
:100030000C94AF000C94B0020C94AF000C94AF0081
:100040000C94AF000C94AF000C94AF000C94AF0074
:100050000C94AF000C94AF000C94AF000C94AF0064
:100060000C94AF000C945E030C9442030C94AF000C
:100070000C94AF000C94AF000C94AF000C94AF0044
:100080000C94AF000C94AF000C94AF000C94AF0034
:100090000C94AF000C94AF000C94AF000C94AF0024
:1000A0000C94AF000C94AF000C94D2000C94E300BD
:1000B0000C94AF000C94AF000C94AF000C94AF0004
:1000C0000C94AF000C94AF000C94AF000C94AF00F4
:1000D0000C94AF000C94AF000C94AF000C94AF00E4
:1000E0000C94AF000C94AF000C94AF000C94AF00D4
:1000F0000C94D0010C94BD010C94AF000C948501BC
:100100000C94AF000C94AF000C94AF000C94AF00B3
:100110000C94AF000C94AF000C94AF000C94AF00A3
:1001200011241FBECFEFD1E4DEBFCDBF12E0A0E0AF
:10013000B2E0E8E6F5E100E00BBF02C007900D92E7
:10014000A231B107D9F716E0A2E1B2E001C01D92D9
:10015000A734B107E1F70E94B5090C94B20A0C94D8
:10016000000014BE88E10FB6F894809360001092EE
:1001700060000FBE78940C94BD0010923A0680E2A5
:100180009EE49093A9008093A800E1EAF0E088E063
:100190008083808182608083E2E7F0E080818260FA
:1001A000808308951F920F920FB60F9211248F93A0
:1001B00080913A068F5F80933A068F910F900FBE21
:1001C0000F901F9018951F920F920FB60F92112447
:1001D0008F9381E0809312028F910F900FBE0F904A
:1001E0001F90189593E09093420180934201909163
:1001F00041019F718913FBCF089580911D028823CF
:1002000011F086E101C088E00C94F200E9E3F1E02E
:1002100080818160808388E00E94F200EEE6F1E058
:1002200080818062808380818F7E80838FEF809346
:100230004F01EEE4F1E080818860808380818064FA
:100240008083ECE4F1E080818068808381E18093A9
:100250006D011092170210921D0281E08093160228
:100260000895E7E1F2E09081916090838093180215
:10027000089580911602813049F481E090E0209148
:100280001702211105C080E090E002C081E090E0FB
:100290008170089588E00E94F200E9E3F1E0808136
:1002A0008260808382E08093160208951F93CF932B
:1002B000DF9300D0CDB7DEB7182F89E169839A8329
:1002C0000E94F2006981862F8E5F80938001E12F6A
:1002D0009A81F92FA1E8B1E002C081918D938E2F10
:1002E000811B8617D0F382E08093420183E08093E4
:1002F00016020F900F90DF91CF911F910895E7E1C3
:10030000F2E080818064808308951F920F920FB67F
:100310000F9211240BB60F922F933F934F935F933D
:100320006F937F938F939F93AF93BF93EF93FF93BD
:10033000809141018F71893169F489E00E94F20056
:1003400084E08093160280914201829586958770A1
:1003500080931502FF91EF91BF91AF919F918F9183
:100360007F916F915F914F913F912F910F900BBEB5
:100370000F900FBE0F901F9018951F920F920FB6FF
:100380000F9211248F93809147018093140287E08C
:10039000809316028F910F900FBE0F901F901895AB
:1003A0001F920F920FB60F9211248F9389E08093C2
:1003B0004201809147018093140280917B018093D8
:1003C000130285E0809316028F910F900FBE0F905D
:1003D0001F9018951F93CF93DF9300D000D01F92EA
:1003E000CDB7DEB780911602843009F45AC020F4EC
:1003F000813009F0ACC007C0853009F466C0873091
:1004000009F0A5C088C010911702112309F49FC0FC
:1004100088E00E94F20010FF09C0909118029F71BD
:1004200080914801807E892B80934801809117023A
:1004300081FF08C0809119028093620180911A02A5
:10044000809363018091170282FF08C080911B0294
:100450008093600180911C0280936101809117025A
:1004600086FF17C080914E01877F80934E01809157
:100470004E018F7B80934E0180914E01806180936D
:100480004E0186E00E94F2001092470186E08093C0
:1004900016028091170286FF0E94FD00109217023B
:1004A00056C0809115020E941C08809141018F71F5
:1004B0008930D9F747C0FC01E058FE4F2081FC018C
:1004C000E25EFD4F20834F5F01C040E020911302A8
:1004D000842F90E030E0281739076CF78EE192E026
:1004E0009A8389838091130282508B83E091130257
:1004F000F0E0E25EFD4F80818C83809114028A558A
:100500008D83CE0101960E945505809141018F7126
:100510008930D9F717C0809114028A550E947A0950
:100520008FEF80934F0180914E01886080934E0140
:1005300080914E01806480934E0180914E018F7EA8
:1005400080934E0181E0809316020E94FD000F907F
:100550000F900F900F900F90DF91CF911F91089502
:100560001F920F920FB60F9211248F9381E0809308
:100570009E028F910F900FBE0F901F9018959B01B8
:10058000AC0184E0220F331F441F551F8A95D1F719
:1005900060E078E488EE91E00E94870A21503109FA
:1005A00041095109BB27A52F942F832F8093C500A4
:1005B0002093C40082E08093C00088E98093C1004A
:1005C00086E08093C20085EB92E09093B402809322
:1005D000B30288EC90E09093B0028093AF02109247
:1005E000B2021092B1021092AC021092AB021092C1
:1005F000AE021092AD022EE733E03093AA022093B0
:10060000A9029093A6028093A5021092A8021092CC
:10061000A7021092A2021092A1021092A4021092BC
:10062000A30281E08093A00210929F02089520917E
:10063000B1023091B2024091AF025091B002241742
:100640003507F9F06091AD027091AE02E091B3020E
:10065000F091B402E60FF71F8083CB010196841757
:10066000950729F09093AE028093AD0204C01092DA
:10067000AE021092AD022F5F3F4F3093B202209333
:10068000B10208951F920F920FB60F9211240BB66C
:100690000F928F93EF93FF9381E08093A002E1ECA0
:1006A000F0E080818F7D8083FF91EF918F910F909B
:1006B0000BBE0F900FBE0F901F9018951F920F92B8
:1006C0000FB60F9211240BB60F922F933F934F93B7
:1006D0008F939F93EF93FF938091C0004091C6004A
:1006E0008C71B1F52091A7023091A8028091A502EA
:1006F0009091A6022817390759F1E091A902F091CB
:10070000AA028091A3029091A402E80FF91F4083EE
:1007100001969093A4028093A3022091A3023091AA
:10072000A4028091A5029091A6022817390721F40E
:100730001092A4021092A3028091A7029091A802A5
:1007400001969093A8028093A70281E080939F0274
:10075000FF91EF919F918F914F913F912F910F902A
:100760000BBE0F900FBE0F901F90189510923F0672
:100770001092400610923C0610923B0610924206E0
:1007800010924106109244061092430610924606BB
:10079000109245060E9457070E9431050E94B2043C
:1007A0000C941404E82FF0E0EE0FFF1FEF5BF94FFD
:1007B0007183608308950E948805882319F081E081
:1007C00090E00AC00E9415088111F9CF0E94190417
:1007D0008111F5CF0E943901817008950C944A016E
:1007E0000E948F050E9438080C942204E09147046F
:1007F000F091480415C0228133812817390769F424
:10080000DC01A158BF4F2C912787DC01AE57BF4FA9
:100810002C91208B22E0248305C00190F081E02DF3
:10082000309749F70C94DC04109248041092470466
:10083000089581E02091470430914804232B09F466
:1008400080E008950F931F93CF93DF93E0914704C7
:10085000F0914804EF017EC08C81882321F0823022
:1008600009F075C058C08C850E94B9048C010097AE
:1008700021F482E08C838F8770C09B838A8381E020
:100880008C83F801ED57FF4F86EF93E091838083CF
:10089000F801EE57FF4F898582FB882780F9808316
:1008A0009985F801838590FB80F98387998593FB6F
:1008B000992790F990FB82F98770838780913F0692
:1008C0008F5F80933F06848780913B0690913C0622
:1008D000968785878D819E81908B878798859F706D
:1008E0008189807F892B818B9F819295907F8F70EA
:1008F000892B818B98012E5E3F4F4C856A857B85C5
:1009000050E0C9010E94A90AC801DF91CF911F914F
:100910000F910C947207EC17FD0741F488819981BF
:1009200090934804809347040AC0FC018081918120
:100930008C179D07D1F78881998191838083ED85FC
:10094000FE85CE01DF91CF911F910F9109940990FF
:10095000D881C02D209709F07FCFDF91CF911F91D3
:100960000F910895109249041092CE0410925305ED
:10097000089590914904992359F09091CE049923B8
:1009800051F090915305911113C022E030E005C061
:1009900020E030E002C021E030E095E8929FF001D5
:1009A000939FF00D1124E75BFB4F805F818302C0B2
:1009B000E0E0F0E0CF010895FC011082089595E891
:1009C000899F90011124275B3B4FC9010895FC01C9
:1009D000DC01A158BF4F1C92DC01A058BF4F1D92F3
:1009E0001C92DC01AE57BF4F1C92DC01AD57BF4FCC
:1009F0001D921C921386AFE3B6E08C918F5F8C93AF
:100A0000848780913B0690913C0696878587108A63
:100A10001786118A08950C94DC04ECEDF5E040E0B3
:100A2000208131812115310529F02150310931838F
:100A3000208341E0359626E0EE30F20789F7411138
:100A40000C941C090895DC011596ED91FC91169704
:100A50002081211104C00E94F10781E0089580E007
:100A60000895ECEDF5E011821082359686E0EE30C7
:100A7000F807C9F710920B0684E190E0A0E0B0E01F
:100A80008093120690931306A0931406B093150654
:100A9000109216068DE095E0909318068093170645
:100AA00063E275E080E00C94D203CF93DF93EC0116
:100AB000E881F9818181883841F58081813611F0A2
:100AC000813419F58A81803100F180510E94B90486
:100AD0000097D9F020E2FC0120832B81E158FF4FE1
:100AE00020832C81FC01E058FF4F20839C012E5F66
:100AF0003F4F4A816881798150E0C9010E94A90A6B
:100B000080910B068F5F80930B06DF91CF91089544
:100B100081E090910B06911101C080E008956F92E1
:100B20007F928F929F92AF92BF92CF92DF92EF927D
:100B3000FF920F931F93CF93DF93CDB7DEB72A9722
:100B40000FB6F894DEBF0FBECDBF80910B06882391
:100B500009F460C1B12C94E2992E2BE0C22E25E05D
:100B6000D22E32E2832E45E0A42E57E9E52EF12C59
:100B70008B2D0E94DF048C01DC018C91823209F400
:100B80008AC0843209F432C1803209F037C1F801D9
:100B9000908287859089019621F41B968C9180FD27
:100BA0002DC1F8014585568580913B0690913C0604
:100BB0008417950709F422C1838581FD1FC1E9EDE2
:100BC000F5E020E030E077247A9483819481892BCA
:100BD000E9F0D8011D968D919C911E9760817181DD
:100BE00086179707A1F41C968C91A29EF001A39EF4
:100BF000F00D1124E752FA4F9281B82FB91B1B1642
:100C00000CF0FCC08283F482E382FDC0722E2F5F61
:100C10003F4F35962A303105C1F6EFEF7E1609F4C5
:100C2000EDC02A2D372D3203F0011124E752FA4F7F
:100C300051834083D8011C968C918283F482E38295
:100C40008CE096E00E941C09DEC020913B063091AA
:100C50003C06F801878590892817390761F085815E
:100C60009681019641F0D8011B968C9182FD03C0BC
:100C7000C8010E94A707F8018785908920913B064B
:100C800030913C062817390719F0019609F0B6C0D3
:100C9000D8018C92B3C01092D805F8012189229511
:100CA0002F70E22FF0E0E430F1050CF05EC0EE0FA3
:100CB000FF1FEF5BF94F0190F081E02D309709F4B1
:100CC00054C0D8011D968D919C911E979A8389835B
:100CD00051963C9151973F703B832C8398012E5E37
:100CE0003F4F3F832E8311962C91119720512887D7
:100CF000A158BF4F2C912987D801A058BF4F2C91E4
:100D00002A87D8011B963C91432F437032FF02C0C3
:100D100020E201C020E0422BD8011F962D913C918A
:100D200050972F3F3F4F11F424E001C020E0422BA9
:100D3000D80119962D913C911A978217930711F4B7
:100D400098E001C090E0242F292BD80115968D91B1
:100D50009C911697019611F480E101C080E0822BEE
:100D60008D83CE010196099501C080E0F8012781AD
:100D700030852F3F3F4F71F421E030E060913B061A
:100D800070913C06D8011F964D915C915097641765
:100D9000750711F020E030E0F801938590FF02C064
:100DA000811102C020FF1FC083E00E94B9043C01F2
:100DB0000097C9F00E94E704F301ED57FF4FD1827D
:100DC000C082D8011D968D919C911E97F301908B46
:100DD0008787128A8091D805848B1C968C91838B8F
:100DE000C3010E947207D8019C9208C0C8010E94EA
:100DF000DC0480910B06815080930B06B394B3E022
:100E0000BB12B6CE07C0F80187819085019609F024
:100E100032CF1BCF2A960FB6F894DEBF0FBECDBFE0
:100E2000DF91CF911F910F91FF90EF90DF90CF90C6
:100E3000BF90AF909F908F907F906F9008950C948B
:100E4000DC04FF920F931F93CF93DF93EC0180910B
:100E50001B06882331F110E005E180E1F82E812F97
:100E60000E94DF04FC018081843181F4DF01A058FD
:100E7000BF4F2D913C911197215031092D933C93F7
:100E8000232B21F40083E158FF4FF0821F5F1330C2
:100E900031F7CE01DF91CF911F910F91FF900C940C
:100EA0001C09DF91CF911F910F91FF90089510922F
:100EB0001A061092190610921B0682E390E0A0E039
:100EC000B0E08093220690932306A0932406B0936B
:100ED00025061092260681E297E0909328068093DB
:100EE00027060895FC01DC01AE57BF4F8C9191E1BC
:100EF0009083DF01A158BF4F1C9280FF03C08FEF8A
:100F00009FEF04C080913D0690913E0696838583B5
:100F1000878590899087878320913B0630913C0696
:100F200032872187209140062F5F2093400624833B
:100F3000019619F481E498E802C081E698E8938369
:100F4000828380911B068F5F80931B0608950F9309
:100F50001F93CF93DF938C01FC01818180510E940C
:100F6000B904EC010097C1F1FC01ED57FF4F8FE18F
:100F700097E0918380839E012E5F3F4FF80141816E
:100F80000E5F1F4F50E0B801C9010E94A90A81E11C
:100F90008883FE01E158FF4F108281E498E89B832B
:100FA0008A838FEF9FEF98878F8380913D06909182
:100FB0003E069E838D8380913B0690913C069A87E6
:100FC0008987809140068F5F809340068C83809153
:100FD0001B068F5F80931B06DF91CF911F910F91AE
:100FE00008951F93CF93DF93FC01C581D681809133
:100FF0001B068823B1F010E0812F0E94DF04FC0162
:101000008081843159F494858981981307C085E1E2
:1010100080838A81EE57FF4F808303C01F5F1330A8
:1010200059F7DF91CF911F91089581E090911B06B0
:10103000911101C080E00895E0911906F0911A061F
:10104000833030F0833031F0853031F481E205C0F7
:1010500080E003C080E201C081E0DF01A158BF4F02
:101060008C9383E1808310921A06109219060895DA
:10107000CF92DF92EF92FF920F931F93CF93DF9364
:1010800080911B06882309F452C0F12C95E1E92ECA
:1010900024E1D22E05E110E032E1C32E8F2D0E9413
:1010A000DF04EC018881833199F0853179F1813158
:1010B000D1F50E943901811136C0D0931A06C09330
:1010C0001906C8826981CE0102960E9456012BC082
:1010D000FE01E158FF4F8081811116C04D855E856C
:1010E00020913B0630913C064217530769F48B85EB
:1010F00080FF0AC0D882C058DF4F198308838CE173
:1011000096E00E941C090FC0E8820DC0FE01ED5759
:10111000FF4F0190F081E02DCE01099580911B06D3
:10112000815080931B06F39483E0F812B7CFDF91D0
:10113000CF911F910F91FF90EF90DF90CF90089586
:101140000E94B1000E9406090E9406010C94B60399
:101150000E94EA010E94F0030C942B090F931F9345
:10116000CF93DF93FC018091290690912A06B681E6
:10117000A781308521850097D1F14B2F5A2F632FFE
:10118000722FDC01C0E0D0E001C0D90112960D91B0
:101190001D912D913C9115974017510762077307D8
:1011A00058F4041B150B260B370B12960D931D9349
:1011B0002D933C9315970BC0401B510B620B730B87
:1011C0002D913C911197ED0121153105F1F64283E6
:1011D000538364837583209739F088819981918343
:1011E0008083F983E8830DC09183808306C01182D8
:1011F0001082B283A38334832583F0932A06E0937D
:101200002906DF91CF911F910F91089510922A0620
:10121000109229060895E0912906F0912A0606C049
:10122000E817F90739F00190F081E02D3097C1F708
:1012300080E0089581E00895CF93DF93EC010E9450
:101240000B09811105C0CE01DF91CF910C94AE083E
:10125000DF91CF910895CF92DF92EF92FF92CF93DB
:10126000DF9380913A068823D1F18FB7F8942091CB
:101270003A0610923A068FBF30E0AAE0B0E00E9432
:101280007B0A6B017C0114C0C41AD50AE60AF70A6E
:101290008881998190932A06809329068A858130D6
:1012A00019F4CE010E94AE08EB85FC85CE010995AC
:1012B000C0912906D0912A06209789F04A815B8146
:1012C0006C817D81C416D506E606F706E8F64C1952
:1012D0005D096E097F094A835B836C837D83DF919F
:1012E000CF91FF90EF90DF90CF90089581E08093B1
:1012F0002B0608951F93CF93DF93CDB7DEB7619789
:101300000FB6F894DEBF0FBECDBF91E1E0E0F2E092
:10131000DE01119601900D929A95E1F7182F165A59
:10132000812F82958F70E1E0F0E0EC0FFD1FE80F58
:10133000F11D80810E9417031F70E1E0F0E0EC0FC7
:10134000FD1FE10FF11D80810E9417038DE00E94B7
:1013500017038AE061960FB6F894DEBF0FBECDBFCB
:10136000DF91CF911F910C9417030E94A00860E0B9
:1013700072EC81E090E00E94BF0288E8C82E83E111
:10138000D82EE12CF12CC6E7D9E001E013E092E081
:10139000B92E0E94A80880912B068130B9F018F070
:1013A0008230B9F773C0C0923306D0923406E0920F
:1013B0003506F092360610923706D0933906C09360
:1013C000380610922C0600932B06E3CF80912C0652
:1013D000853060F582E50E94170381E60E941703BD
:1013E00084E60E94170389E60E9417038FE60E9495
:1013F000170380E20E94170383E70E94170385E624
:101400000E9417038EE60E94170384E60E941703CA
:101410008DE00E9417038AE00E9417038AE10E9470
:1014200031010E947F01B0922B06B3CF84E40E9469
:10143000170385E60E94170385E60E94170380E7DD
:101440000E94170380E20E94170383E70E9417039C
:101450008CE60E94170385E60E94170385E60E942A
:10146000170380E70E9417038DE00E9417038AE0AC
:101470000E94170383B7817F846083BF83B7816035
:1014800083BF889583B78E7F83BF83CF0E94DB03A2
:1014900081117FCF82E50E94170381E60E94170326
:1014A00084E60E94170389E60E9417038FE60E94D4
:1014B000170380E20E94170383E70E9417038CE65C
:1014C0000E94170385E60E94170385E60E94170312
:1014D00080E70E9417038DE00E9417038AE00E94B4
:1014E000170380912C068F5F80932C060E94EE03D9
:1014F00010932B064ECFA29FB001B39FC001A39FB4
:1015000001D0B29F700D811D1124911D0895A1E29B
:101510001A2EAA1BBB1BFD010DC0AA1FBB1FEE1F6D
:10152000FF1FA217B307E407F50720F0A21BB30BB8
:10153000E40BF50B661F771F881F991F1A9469F734
:1015400060957095809590959B01AC01BD01CF0190
:101550000895FB01DC0102C001900D924150504002
:08156000D8F70895F894FFCFBD
:101568003031323334353637383961626364656611
:02157800000071
:00000001FF
