:100000000C9490000C94A2000C94A2000C94A200FA
:100010000C94A2000C94A2000C94A2000C94A200D8
:100020000C94A2000C94A2000C94A2000C94A200C8
:100030000C94A2000C945D020C94A2000C94A200FB
:100040000C94A2000C94A2000C94A2000C94A200A8
:100050000C94A2000C94A2000C94A2000C94A20098
:100060000C94A2000C94A2000C94A2000C94A20088
:100070000C94A2000C94A2000C94A2000C94A20078
:100080000C94A2000C94A2000C94A2000C94A20068
:100090000C9438030C941C030C94A2000C94A20042
:1000A0000C94A2000C94A2000C94C5000C94D600F1
:1000B0000C94A2000C94A2000C94A2000C94A20038
:1000C0000C94A2000C94A2000C94A2000C94A20028
:1000D0000C94A2000C94A2000C94A2000C94A20018
:1000E0000C94A2000C94A2000C94A2000C94A20008
:1000F0000C94BA010C94A2000C94A2000C948201FE
:100100000C94A2000C94A2000C94A2000C94A200E7
:100110000C94A2000C94A2000C94A2000C94A200D7
:1001200011241FBECFEFD1E4DEBFCDBF19E0A0E0A8
:10013000B2E001C01D92A937B107E1F70E949D0B03
:100140000C94190C0C94000014BE88E10FB6F894BE
:1001500080936000109260000FBE78940C94B00001
:1001600010926C0980E197E29093A9008093A80017
:10017000E1EAF0E088E08083808182608083E2E7CA
:10018000F0E080818260808308951F920F920FB605
:100190000F9211248F9380916C098F5F80936C096B
:1001A0008F910F900FBE0F901F9018951F920F9276
:1001B0000FB60F9211248F9381E0809300028F91EC
:1001C0000F900FBE0F901F90189593E090934201EF
:1001D00080934201909141019F718913FBCF089553
:1001E00080910B02882311F086E101C088E00C9415
:1001F000E500E9E3F1E080818160808388E00E948E
:10020000E500EEE6F1E080818062808380818F7E70
:1002100080838FEF80934F01EEE4F1E0808188606E
:100220008083808180648083ECE4F1E08081806859
:10023000808381E180936D011092050210920B0280
:1002400081E0809304020895E5E0F2E090819860F7
:10025000908380930B020895E5E0F2E09081916035
:100260009083809306020895E5E0F2E02081226009
:10027000208390930802809307020895E5E0F2E05E
:1002800020812460208390930A02809309020895BC
:1002900080910402813049F481E090E020910502D0
:1002A000211105C080E090E002C081E090E0817003
:1002B00008951F93CF93DF9300D0CDB7DEB7182FEB
:1002C00089E169839A830E94E5006981862F8E5FA8
:1002D00080938001E12F9A81F92FA1E8B1E002C05B
:1002E00081918D938E2F811B8617D0F382E08093AE
:1002F000420183E0809304020F900F90DF91CF9131
:100300001F9108951F920F920FB60F9211240BB6F2
:100310000F922F933F934F935F936F937F938F939E
:100320009F93AF93BF93EF93FF93809141018F71A0
:10033000893169F489E00E94E50084E08093040239
:100340008091420182958695877080930302FF9188
:10035000EF91BF91AF919F918F917F916F915F913D
:100360004F913F912F910F900BBE0F900FBE0F90AA
:100370001F9018951F920F920FB60F9211248F9312
:1003800089E080934201809147018093020280912D
:100390007B018093010285E0809304028F910F908E
:1003A0000FBE0F901F9018951F93CF93DF9300D02F
:1003B00000D01F92CDB7DEB7809104028430B1F136
:1003C000853009F447C0813009F06EC010910502F4
:1003D000112309F469C088E00E94E50010FF09C0FC
:1003E000909106029F7180914801807E892B8093B5
:1003F00048018091050281FF08C080910702809327
:10040000620180910802809363018091050282FF5E
:1004100008C0809109028093600180910A02809354
:1004200061010E94F000109205023EC0809103021B
:100430000E94B609809141018F718930D9F72FC090
:10044000FC01E058FE4F2081FC01E45FFD4F20835A
:100450004F5F01C040E020910102842F90E030E026
:10046000281739076CF78CE092E09A838983809192
:10047000010282508B83E0910102F0E0E45FFD4FC6
:1004800080818C83809102028A558D83CE010196F2
:100490000E94C406809141018F718930D9F781E0B3
:1004A000809304020E94F0000F900F900F900F9025
:1004B0000F90DF91CF911F9108951F920F920FB669
:1004C0000F9211248F9381E080938C028F910F9073
:1004D0000FBE0F901F9018959B01AC0184E0220F76
:1004E000331F441F551F8A95D1F760E074E284EFF3
:1004F00090E00E94EE0B2150310941095109BB27C0
:10050000A52F942F832F8093CD002093CC00E8EC6F
:10051000F0E082E0808388E98093C90086E08093E0
:10052000CA0083EA92E09093A2028093A102F09322
:100530009E02E0939D021092A00210929F021092E0
:100540009A021092990210929C0210929B028CE6E1
:1005500093E09093980280939702F0939402E09333
:1005600093021092960210929502109290021092AD
:100570008F02109292021092910281E080938E027B
:1005800010928D02089520919F023091A002409117
:100590009D0250919E0224173507F9F060919B024D
:1005A00070919C02E091A102F091A202E60FF71F68
:1005B0008083CB0101968417950729F090939C02C4
:1005C00080939B0204C010929C0210929B022F5FAA
:1005D0003F4F3093A00220939F0208959FB7F89455
:1005E000E0919702F091980220918F023091900251
:1005F000E20FF31F80812F5F3F4F309390022093D3
:100600008F0240918F02509190022091930230917D
:1006100094024217530721F41092900210928F0215
:100620002091950230919602215031093093960223
:10063000209395029FBF08951F920F920FB60F92BD
:1006400011240BB60F928F93EF93FF9381E0809369
:100650008E02E9ECF0E080818F7D8083FF91EF9145
:100660008F910F900BBE0F900FBE0F901F9018959B
:100670001F920F920FB60F9211240BB60F922F9369
:100680003F934F938F939F93EF93FF938091C80075
:100690004091CE008C71B1F5209195023091960277
:1006A00080919302909194022817390759F1E091B3
:1006B0009702F09198028091910290919202E80F36
:1006C000F91F4083019690939202809391022091AA
:1006D0009102309192028091930290919402281796
:1006E000390721F4109292021092910280919502A2
:1006F000909196020196909396028093950281E0E4
:1007000080938D02FF91EF919F918F914F913F9137
:100710002F910F900BBE0F900FBE0F901F9018954A
:1007200080919F029091A002009789F120918E0202
:10073000222369F12091990230919A02E091A1025D
:10074000F091A202E20FF31F60812F5F3F4F3093C1
:100750009A022093990240919D0250919E02241783
:10076000350721F410929A02109299020197909302
:10077000A00280939F029FB7F8946093CE0080916F
:10078000C90080628093C90010928E029FBF3FB75C
:10079000F89420918D0210928D0280919502909193
:1007A00096023FBF21110C946C0B089510927109B1
:1007B0001092720910926E0910926D0910927409CC
:1007C00010927309109276091092750910927809A7
:1007D000109277090E94F2080E94A0060E94D70496
:1007E0000E942D040C94550590936E0980936D0919
:1007F0000C943E019093700980936F090C9434011E
:10080000E82FF0E0EE0FFF1FED58F64F7183608385
:1008100008950E94F7060E94D2090C944704E091C3
:100820003504F091360415C0228133812817390729
:1008300069F4DC01A158BF4F2C912787DC01AE572A
:10084000BF4F2C91208B22E0248305C00190F081C2
:10085000E02D309749F70C94010510923604109260
:1008600035040895FC011482178613821282809148
:10087000350490913604009719F41182108202C059
:1008800091838083F0933604E093350408950F93A9
:100890001F93CF93DF93E0913504F0913604EF017D
:1008A0007EC08C81882321F0823009F075C058C049
:1008B0008C850E94DE048C01009721F482E08C83F9
:1008C0008F8770C09B838A8381E08C83F801ED570A
:1008D000FF4F8FE094E091838083F801EE57FF4F44
:1008E000898582FB882780F980839985F801838533
:1008F00090FB80F98387998593FB992790F990FB6A
:1009000082F987708387809171098F5F8093710965
:10091000848780916D0990916E09968785878D8176
:100920009E81908B878798859F708189807F892B96
:10093000818B9F819295907F8F70892B818B9801FD
:100940002E5E3F4F4C856A857B8550E0C9010E9431
:10095000100CC801DF91CF911F910F910C940D09DC
:10096000EC17FD0741F488819981909336048093B8
:1009700035040AC0FC01808191818C179D07D1F755
:100980008881998191838083ED85FE85CE01DF91F9
:10099000CF911F910F9109940990D881C02D209774
:1009A00009F07FCFDF91CF911F910F9108951092A1
:1009B00037041092BC0410924105089590913704B9
:1009C000992359F09091BC04992351F090914105DD
:1009D000911113C022E030E005C020E030E002C0F9
:1009E00021E030E095E8929FF001939FF00D1124F3
:1009F000E95CFB4F805F818302C0E0E0F0E0CF0163
:100A00000895FC011082089595E8899F90011124B2
:100A1000295C3B4FC9010895FC01DC01A158BF4F7F
:100A20001C92DC01A058BF4F1D921C92DC01AE57F6
:100A3000BF4F1C92DC01AD57BF4F1D921C92138615
:100A4000A1E7B9E08C918F5F8C93848780916D09C9
:100A500090916E0996878587108A1786118A089566
:100A6000E6ECF5E040E050E02081318128173907BD
:100A700049F486E0849F9001859F300D11242A530C
:100A80003A4F0DC04F5F5F4F36964436510561F7C0
:100A9000019619F428E138E002C020E030E0C901F5
:100AA00008950C9401050C940105E6ECF5E08FEF38
:100AB0009FEF91838083369628E0EE31F207C9F7E5
:100AC00008950E943005009729F02FEF3FEFFC01B9
:100AD000318320830895EF92FF920F931F93CF935A
:100AE000DF93EC0109851A8517FF05C08D859E856A
:100AF0000817190741F58D819E81019621F1ED843A
:100B0000FE84C7010E943005FC01009769F08281D4
:100B100093818017910799F0DE01A158BF4F9C91F6
:100B20008581891760F407C08FEF9FEF0E94300521
:100B3000FC01F182E0821383028383E08483C15845
:100B4000DF4F88818583DF91CF911F910F91FF90B7
:100B5000EF9008950F931F93CF93DF9300D000D0B1
:100B600000D0CDB7DEB78C01FC01878590890E944B
:100B700030059C01009799F1F801E158FF4F808101
:100B8000811104C083E0F90184830BC0F9018481E1
:100B900081508483811105C08FEF9FEF9183808303
:100BA0001EC0C901865C95400697CCF0C901069726
:100BB00046E0FC01DE01119601900D924A95E1F7A5
:100BC00046E0F901DC0101900D924A95E1F786E0DB
:100BD000FE013196D90101900D928A95E1F7269692
:100BE0000FB6F894DEBF0FBECDBFDF91CF911F913E
:100BF0000F9108958F3F2FEF9207D1F0E6ECF5E0CB
:100C000020E030E0408151814817590759F486E0CF
:100C1000829FF001839FF00D1124EA53FA4F228145
:100C2000338108C02F5F3F4F36962436310551F788
:100C30002FEF3FEFC9010895CF92DF92EF92FF921D
:100C40000F931F93CF93DF938C01FC01E784F0880F
:100C5000C7010E94FA050196B9F0F801ED57FF4F60
:100C600083E595E091838083F801EE57FF4F82E0A2
:100C70008083C801DF91CF911F910F91FF90EF907A
:100C8000DF90CF900C940D09F801C584D68485E0DF
:100C90000E94DE04EC010097A1F00E940C05FE0109
:100CA000ED57FF4F81E595E091838083D88ACF8609
:100CB00081E08A8BDC8ACB8AFE8AED8ACE010E9493
:100CC0000D09C801DF91CF911F910F91FF90EF9017
:100CD000DF90CF900C940105DC011596ED91FC910D
:100CE0001697838194810C9461050C940105E2E2CE
:100CF000F8E040E0208131812115310529F02150B3
:100D000031093183208341E0359628E0E435F2074C
:100D100089F741110C94B90A0895DC011596ED91FB
:100D2000FC9116972081211103C00E94920904C0F2
:100D3000213021F40E946C0681E0089580E008953E
:100D4000E2E2F8E011821082359688E0E435F80797
:100D5000C9F71092510884E190E0A0E0B0E08093E0
:100D6000580890935908A0935A08B0935B081092C2
:100D70005C0887E796E090935E0880935D086DE8D5
:100D800076E080E00C940004CF93DF93EC01E881DF
:100D9000F9818181883841F58081813611F0813473
:100DA00019F58A81803100F180510E94DE0400979C
:100DB000D9F020E2FC0120832B81E158FF4F2083F2
:100DC0002C81FC01E058FF4F20839C012E5F3F4F98
:100DD0004A816881798150E0C9010E94100C80919C
:100DE00051088F5F80935108DF91CF9108957F92D2
:100DF0008F929F92AF92BF92CF92DF92EF92FF922B
:100E00000F931F93CF93DF93CDB7DEB72A970FB61B
:100E1000F894DEBF0FBECDBF80915108882309F43E
:100E200095C1B12C94E2A92E25E7C22E26E0D22E40
:100E300032E2832E43E2742E55E0952E8B2D0E94D4
:100E400004058C01DC018C91823209F4BBC020F4D2
:100E5000803209F06FC107C0833209F45FC1843268
:100E600009F068C15FC1F801A08287859089019669
:100E700029F4D8011B968C9180FD5CC120916D09ED
:100E800030916E09F801858596852817390709F490
:100E900051C1838581FD4EC1C8010E946B05AFE140
:100EA000B8E020E030E06FEF13968D919C9114979D
:100EB000892B81F1F801458556858D919C9111977B
:100EC0004817590741F58485929EF001939EF00DD5
:100ED0001124E15EF74F9281282F291B121634F45A
:100EE000828387E990E09483838329C120916D09EF
:100EF00030916E09D80117968D919C9118972817FB
:100F0000390709F017C11F968D919C9150970E9447
:100F1000610510C1622F2F5F3F4F15962A303105B2
:100F200019F66F3F09F406C1292D6203F00111245F
:100F3000E15EF74FD8011D968D919C911E9791838C
:100F400080831C968C91828387E990E094838383CD
:100F500082E598E00E94B90AF2C020916D093091B3
:100F60006E09F801878590892817390761F0858116
:100F70009681019641F0D8011B968C9182FD03C0A9
:100F8000C8010E94480980916D0990916E09F8018D
:100F9000278530898217930719F02F3F3F4F19F4A7
:100FA000D8018C92C7C0F80127813085821793073A
:100FB00009F0C0C085819681019609F4BBC0D801B3
:100FC0007C92B8C010921E08F801218922952F70DA
:100FD000E22FF0E0E430F1050CF05EC0EE0FFF1FF1
:100FE000ED58F64F0190F081E02D309709F454C090
:100FF000D8011D968D919C911E979A838983519655
:101000003C9151973F703B832C8398012E5E3F4F5C
:101010003F832E8311962C91119720512887A15838
:10102000BF4F2C912987D801A058BF4F2C912A87F8
:10103000D8011B963C91432F437032FF02C020E23F
:1010400001C020E0422BD8011F962D913C91509772
:101050002F3F3F4F11F424E001C020E0422BD80184
:1010600019962D913C911A978217930711F498E0E5
:1010700001C090E0242F292BD80115968D919C91C9
:101080001697019611F480E101C080E0822B8D83D8
:10109000CE010196099501C080E0F80127813085D5
:1010A0002F3F3F4F71F421E030E060916D09709166
:1010B0006E09D8011F964D915C9150976417750782
:1010C00011F020E030E02170F801938590FF02C01C
:1010D000811102C02223F9F083E00E94DE047C012A
:1010E0000097C9F00E940C05F701ED57FF4FD18220
:1010F000C082D8011D968D919C911E97F701908B0F
:101100008787128A80911E08848B1C968C91838B12
:10111000C7010E940D09D801AC920CC0C8010E9401
:101120001C0603C0C8010E9401058091510881502E
:1011300080935108B394B3E0BB1280CE07C0F8018E
:1011400087819085019609F01ECF07CF2A960FB6AA
:10115000F894DEBF0FBECDBFDF91CF911F910F91ED
:10116000FF90EF90DF90CF90BF90AF909F908F90C7
:101170007F9008950C940105FF920F931F93CF93D6
:10118000DF93EC0180916108882331F110E005E1E3
:1011900080E1F82E812F0E940405FC0180818431BA
:1011A00081F4DF01A058BF4F2D913C911197215040
:1011B00031092D933C93232B21F40083E158FF4FF9
:1011C000F0821F5F133031F7CE01DF91CF911F9175
:1011D0000F91FF900C94B90ADF91CF911F910F915D
:1011E000FF9008951092600810925F0810926108B5
:1011F00082E390E0A0E0B0E08093680890936908F3
:10120000A0936A08B0936B0810926C088CEB98E07E
:1012100090936E0880936D080895CF93DF93EC014F
:10122000FC01EE57FF4F808191E19883FE01E15868
:10123000FF4F108280FF03C08FEF9FEF04C08091AB
:101240006F09909170099E838D838F8598890E9484
:10125000FA0598878F8320916D0930916E093A873E
:101260002987209172092F5F209372092C830196A0
:1012700019F481E498E802C081E698E89B838A83A8
:10128000809161088F5F80936108DF91CF9108950D
:101290000F931F93CF93DF938C01FC0181818051C9
:1012A0000E94DE04EC010097C1F1FC01ED57FF4FF5
:1012B0008AEB98E0918380839E012E5F3F4FF80177
:1012C00041810E5F1F4F50E0B801C9010E94100C10
:1012D00081E18883FE01E158FF4F108281E498E8A4
:1012E0009B838A838FEF9FEF98878F8380916F090D
:1012F000909170099E838D8380916D0990916E0904
:101300009A878987809172098F5F809372098C8395
:10131000809161088F5F80936108DF91CF911F9169
:101320000F9108951F93CF93DF93FC01C581D68160
:10133000809161088823B1F010E0812F0E9404059C
:10134000FC018081843159F494858981981307C008
:1013500085E180838A81EE57FF4F808303C01F5F42
:10136000133059F7DF91CF911F910895E0915F08F5
:10137000F0916008833030F0833031F0853031F403
:1013800081E205C080E003C080E201C081E0DF01AE
:10139000A158BF4F8C9383E1808310926008109214
:1013A0005F080895CF92DF92EF92FF920F931F9301
:1013B000CF93DF9380916108882309F455C0F12C05
:1013C00095E1E92E24E1D22E05E110E032E1C32EB1
:1013D0008F2D0E940405EC018881833199F08531BD
:1013E00079F18131E9F50E944801811139C0D0932A
:1013F0006008C0935F08C8826981CE0102960E948E
:1014000059012EC0FE01E158FF4F8081811116C0A5
:101410004D855E8520916D0930916E094217530705
:1014200069F48B8580FF0AC0D882C058DF4F1983CA
:10143000088382E698E00E94B90A12C0E88210C0D0
:10144000CE010E94AA05FE01ED57FF4F0190F081E9
:10145000E02DCE010995809161088150809361084B
:10146000F39483E0F812B4CFDF91CF911F910F91E5
:10147000FF90EF90DF90CF9008950E94A4000E940B
:10148000A30A0E94F9000C94D6030E94D4010E9482
:1014900009040C94C80A0F931F93CF93DF93FC01A8
:1014A00080916F0890917008B681A7813085218561
:1014B0000097D1F14B2F5A2F632F722FDC01C0E020
:1014C000D0E001C0D90112960D911D912D913C9152
:1014D0001597401751076207730758F4041B150B43
:1014E000260B370B12960D931D932D933C93159756
:1014F0000BC0401B510B620B730B2D913C9111974C
:10150000ED0121153105F1F6428353836483758320
:10151000209739F08881998191838083F983E883CA
:101520000DC09183808306C011821082B283A38391
:1015300034832583F0937008E0936F08DF91CF9197
:101540001F910F9108951092700810926F080895DE
:10155000E0916F08F091700806C0E817F90739F0BC
:101560000190F081E02D3097C1F780E0089581E08F
:101570000895CF93DF93EC010E94A80A811105C062
:10158000CE01DF91CF910C944B0ADF91CF9108955A
:10159000CF92DF92EF92FF92CF93DF9380916C090D
:1015A0008823D1F18FB7F89420916C0910926C09BF
:1015B0008FBF30E0AAE0B0E00E94E20B6B017C013B
:1015C00014C0C41AD50AE60AF70A88819981909353
:1015D000700880936F088A85813019F4CE010E94CB
:1015E0004B0AEB85FC85CE010995C0916F08D0911F
:1015F0007008209789F04A815B816C817D81C416D7
:10160000D506E606F706E8F64C195D096E097F096E
:101610004A835B836C837D83DF91CF91FF90EF9052
:10162000DF90CF9008951F93CF93DF93EC0110E0EC
:1016300008C0ED81FE81E10FF11D80810E94C3028F
:101640001F5F8F811817A8F381E0DF91CF911F9161
:1016500008950F931F93CF93DF938091DF0881113B
:1016600030C010917108112361F1C0EED8E082E71B
:1016700098E0412F50E0BC01CE010E94100C81E0A7
:1016800090E0909353098093520901E0009354092C
:101690000093550982E080935609D0935809C0936E
:1016A00057091093590988E69BE090935B09809352
:1016B0005A098DE499E00E94320410927108009357
:1016C000DF08DF91CF911F910F9108950C94290BA2
:1016D0001092DF080C94290BEF92FF920F931F9347
:1016E000CF93DF931F92CDB7DEB78C01E12CF12CA5
:1016F00019C00E94EE02909171089D3621F48983F1
:101700000E94290B8981909171089D3640F4E92F40
:10171000F0E0EE58F74F80839F5F909371088FEF52
:10172000E81AF80AE016F10621F70F90DF91CF9141
:101730001F910F91FF90EF9008950E943D0A60E085
:1017400076E980E090E00E946C0280EDB82E00EC1B
:1017500094E1C92ED12CE12CF12CC6E6DBE00E94ED
:10176000450A0E94900380915E098111F8CF80E0C4
:1017700090E00E94F40387E695E40E94FA038FE06C
:101780000E942C0181E00E94240163E17BE081E062
:101790000E940004BAB80BB9C0926509D0926609DC
:1017A000E0926709F092680911E010936909D093FB
:1017B0006B09C0936A098FE599E00E94B90A1093FA
:1017C0005E09CDCFA29FB001B39FC001A39F01D0FE
:1017D000B29F700D811D1124911D0895A1E21A2E52
:1017E000AA1BBB1BFD010DC0AA1FBB1FEE1FFF1FC5
:1017F000A217B307E407F50720F0A21BB30BE40B15
:10180000F50B661F771F881F991F1A9469F760955B
:101810007095809590959B01AC01BD01CF01089515
:10182000FB01DC0102C001900D9241505040D8F7FD
:061830000895F894FFCFBB
:00000001FF
